{
  "contractName": "AdminNFT",
  "abi": [
    {
      "inputs": [
        {
          "internalType": "address",
          "name": "_nftAddress",
          "type": "address"
        }
      ],
      "stateMutability": "nonpayable",
      "type": "constructor"
    },
    {
      "anonymous": false,
      "inputs": [
        {
          "indexed": true,
          "internalType": "address",
          "name": "owner",
          "type": "address"
        },
        {
          "indexed": true,
          "internalType": "address",
          "name": "approved",
          "type": "address"
        },
        {
          "indexed": true,
          "internalType": "uint256",
          "name": "tokenId",
          "type": "uint256"
        }
      ],
      "name": "Approval",
      "type": "event"
    },
    {
      "anonymous": false,
      "inputs": [
        {
          "indexed": true,
          "internalType": "address",
          "name": "owner",
          "type": "address"
        },
        {
          "indexed": true,
          "internalType": "address",
          "name": "operator",
          "type": "address"
        },
        {
          "indexed": false,
          "internalType": "bool",
          "name": "approved",
          "type": "bool"
        }
      ],
      "name": "ApprovalForAll",
      "type": "event"
    },
    {
      "anonymous": false,
      "inputs": [
        {
          "indexed": true,
          "internalType": "address",
          "name": "previousOwner",
          "type": "address"
        },
        {
          "indexed": true,
          "internalType": "address",
          "name": "newOwner",
          "type": "address"
        }
      ],
      "name": "OwnershipTransferred",
      "type": "event"
    },
    {
      "anonymous": false,
      "inputs": [
        {
          "indexed": true,
          "internalType": "address",
          "name": "from",
          "type": "address"
        },
        {
          "indexed": true,
          "internalType": "address",
          "name": "to",
          "type": "address"
        },
        {
          "indexed": true,
          "internalType": "uint256",
          "name": "tokenId",
          "type": "uint256"
        }
      ],
      "name": "Transfer",
      "type": "event"
    },
    {
      "inputs": [
        {
          "internalType": "address",
          "name": "to",
          "type": "address"
        },
        {
          "internalType": "uint256",
          "name": "tokenId",
          "type": "uint256"
        }
      ],
      "name": "approve",
      "outputs": [],
      "stateMutability": "nonpayable",
      "type": "function"
    },
    {
      "inputs": [
        {
          "internalType": "address",
          "name": "owner",
          "type": "address"
        }
      ],
      "name": "balanceOf",
      "outputs": [
        {
          "internalType": "uint256",
          "name": "",
          "type": "uint256"
        }
      ],
      "stateMutability": "view",
      "type": "function",
      "constant": true
    },
    {
      "inputs": [],
      "name": "bossNFT",
      "outputs": [
        {
          "internalType": "contract IERC721",
          "name": "",
          "type": "address"
        }
      ],
      "stateMutability": "view",
      "type": "function",
      "constant": true
    },
    {
      "inputs": [
        {
          "internalType": "uint256",
          "name": "tokenId",
          "type": "uint256"
        }
      ],
      "name": "getApproved",
      "outputs": [
        {
          "internalType": "address",
          "name": "",
          "type": "address"
        }
      ],
      "stateMutability": "view",
      "type": "function",
      "constant": true
    },
    {
      "inputs": [
        {
          "internalType": "address",
          "name": "owner",
          "type": "address"
        },
        {
          "internalType": "address",
          "name": "operator",
          "type": "address"
        }
      ],
      "name": "isApprovedForAll",
      "outputs": [
        {
          "internalType": "bool",
          "name": "",
          "type": "bool"
        }
      ],
      "stateMutability": "view",
      "type": "function",
      "constant": true
    },
    {
      "inputs": [],
      "name": "name",
      "outputs": [
        {
          "internalType": "string",
          "name": "",
          "type": "string"
        }
      ],
      "stateMutability": "view",
      "type": "function",
      "constant": true
    },
    {
      "inputs": [],
      "name": "owner",
      "outputs": [
        {
          "internalType": "address",
          "name": "",
          "type": "address"
        }
      ],
      "stateMutability": "view",
      "type": "function",
      "constant": true
    },
    {
      "inputs": [
        {
          "internalType": "uint256",
          "name": "tokenId",
          "type": "uint256"
        }
      ],
      "name": "ownerOf",
      "outputs": [
        {
          "internalType": "address",
          "name": "",
          "type": "address"
        }
      ],
      "stateMutability": "view",
      "type": "function",
      "constant": true
    },
    {
      "inputs": [],
      "name": "renounceOwnership",
      "outputs": [],
      "stateMutability": "nonpayable",
      "type": "function"
    },
    {
      "inputs": [
        {
          "internalType": "address",
          "name": "from",
          "type": "address"
        },
        {
          "internalType": "address",
          "name": "to",
          "type": "address"
        },
        {
          "internalType": "uint256",
          "name": "tokenId",
          "type": "uint256"
        }
      ],
      "name": "safeTransferFrom",
      "outputs": [],
      "stateMutability": "nonpayable",
      "type": "function"
    },
    {
      "inputs": [
        {
          "internalType": "address",
          "name": "from",
          "type": "address"
        },
        {
          "internalType": "address",
          "name": "to",
          "type": "address"
        },
        {
          "internalType": "uint256",
          "name": "tokenId",
          "type": "uint256"
        },
        {
          "internalType": "bytes",
          "name": "data",
          "type": "bytes"
        }
      ],
      "name": "safeTransferFrom",
      "outputs": [],
      "stateMutability": "nonpayable",
      "type": "function"
    },
    {
      "inputs": [
        {
          "internalType": "address",
          "name": "operator",
          "type": "address"
        },
        {
          "internalType": "bool",
          "name": "approved",
          "type": "bool"
        }
      ],
      "name": "setApprovalForAll",
      "outputs": [],
      "stateMutability": "nonpayable",
      "type": "function"
    },
    {
      "inputs": [
        {
          "internalType": "bytes4",
          "name": "interfaceId",
          "type": "bytes4"
        }
      ],
      "name": "supportsInterface",
      "outputs": [
        {
          "internalType": "bool",
          "name": "",
          "type": "bool"
        }
      ],
      "stateMutability": "view",
      "type": "function",
      "constant": true
    },
    {
      "inputs": [],
      "name": "symbol",
      "outputs": [
        {
          "internalType": "string",
          "name": "",
          "type": "string"
        }
      ],
      "stateMutability": "view",
      "type": "function",
      "constant": true
    },
    {
      "inputs": [
        {
          "internalType": "uint256",
          "name": "tokenId",
          "type": "uint256"
        }
      ],
      "name": "tokenURI",
      "outputs": [
        {
          "internalType": "string",
          "name": "",
          "type": "string"
        }
      ],
      "stateMutability": "view",
      "type": "function",
      "constant": true
    },
    {
      "inputs": [
        {
          "internalType": "address",
          "name": "from",
          "type": "address"
        },
        {
          "internalType": "address",
          "name": "to",
          "type": "address"
        },
        {
          "internalType": "uint256",
          "name": "tokenId",
          "type": "uint256"
        }
      ],
      "name": "transferFrom",
      "outputs": [],
      "stateMutability": "nonpayable",
      "type": "function"
    },
    {
      "inputs": [
        {
          "internalType": "address",
          "name": "newOwner",
          "type": "address"
        }
      ],
      "name": "transferOwnership",
      "outputs": [],
      "stateMutability": "nonpayable",
      "type": "function"
    },
    {
      "inputs": [
        {
          "internalType": "address",
          "name": "to",
          "type": "address"
        }
      ],
      "name": "safeMint",
      "outputs": [],
      "stateMutability": "nonpayable",
      "type": "function"
    }
  ],
  "bytecode": "0x60806040523480156200001157600080fd5b50604051620031873803806200318783398181016040528101906200003791906200027b565b6040518060400160405280600881526020017f41646d696e4e46540000000000000000000000000000000000000000000000008152506040518060400160405280600381526020017f41444d00000000000000000000000000000000000000000000000000000000008152508160009081620000b491906200052d565b508060019081620000c691906200052d565b505050620000fb620000e662000143640100000000026401000000009004565b6200014b640100000000026401000000009004565b80600760006101000a81548173ffffffffffffffffffffffffffffffffffffffff021916908373ffffffffffffffffffffffffffffffffffffffff1602179055505062000614565b600033905090565b6000600660009054906101000a900473ffffffffffffffffffffffffffffffffffffffff16905081600660006101000a81548173ffffffffffffffffffffffffffffffffffffffff021916908373ffffffffffffffffffffffffffffffffffffffff1602179055508173ffffffffffffffffffffffffffffffffffffffff168173ffffffffffffffffffffffffffffffffffffffff167f8be0079c531659141344cd1fd0a4f28419497f9722a3daafe3b4186f6b6457e060405160405180910390a35050565b600080fd5b600073ffffffffffffffffffffffffffffffffffffffff82169050919050565b6000620002438262000216565b9050919050565b620002558162000236565b81146200026157600080fd5b50565b60008151905062000275816200024a565b92915050565b60006020828403121562000294576200029362000211565b5b6000620002a48482850162000264565b91505092915050565b600081519050919050565b7f4e487b7100000000000000000000000000000000000000000000000000000000600052604160045260246000fd5b7f4e487b7100000000000000000000000000000000000000000000000000000000600052602260045260246000fd5b600060028204905060018216806200032f57607f821691505b602082108103620003455762000344620002e7565b5b50919050565b60008190508160005260206000209050919050565b60006020601f8301049050919050565b60008160020a8302905092915050565b600060088302620003b27fffffffffffffffffffffffffffffffffffffffffffffffffffffffffffffffff8262000370565b620003be868362000370565b95508019841693508086168417925050509392505050565b6000819050919050565b6000819050919050565b60006200040b62000405620003ff84620003d6565b620003e0565b620003d6565b9050919050565b6000819050919050565b6200042783620003ea565b6200043f620004368262000412565b84845462000380565b825550505050565b600090565b6200045662000447565b620004638184846200041c565b505050565b5b818110156200048b576200047f6000826200044c565b60018101905062000469565b5050565b601f821115620004da57620004a4816200034b565b620004af8462000360565b81016020851015620004bf578190505b620004d7620004ce8562000360565b83018262000468565b50505b505050565b60008160020a8304905092915050565b60006200050260001984600802620004df565b1980831691505092915050565b60006200051d8383620004ef565b9150826002028217905092915050565b6200053882620002ad565b67ffffffffffffffff811115620005545762000553620002b8565b5b62000560825462000316565b6200056d8282856200048f565b600060209050601f831160018114620005a5576000841562000590578287015190505b6200059c85826200050f565b8655506200060c565b601f198416620005b5866200034b565b60005b82811015620005df57848901518255600182019150602085019450602081019050620005b8565b86831015620005ff5784890151620005fb601f891682620004ef565b8355505b6001600288020188555050505b505050505050565b612b6380620006246000396000f3fe608060405234801561001057600080fd5b5060043610610133576000357c01000000000000000000000000000000000000000000000000000000009004806370a08231116100bf578063a22cb4651161008e578063a22cb465146102ea578063b88d4fde14610306578063c87b56dd14610322578063e985e9c514610352578063f2fde38b1461038257610133565b806370a0823114610274578063715018a6146102a45780638da5cb5b146102ae57806395d89b41146102cc57610133565b80631cb3ab1f116101065780631cb3ab1f146101d257806323b872dd146101f057806340d097c31461020c57806342842e0e146102285780636352211e1461024457610133565b806301ffc9a71461013857806306fdde0314610168578063081812fc14610186578063095ea7b3146101b6575b600080fd5b610152600480360381019061014d9190611c13565b61039e565b60405161015f9190611c5b565b60405180910390f35b610170610480565b60405161017d9190611d06565b60405180910390f35b6101a0600480360381019061019b9190611d5e565b610512565b6040516101ad9190611dcc565b60405180910390f35b6101d060048036038101906101cb9190611e13565b610558565b005b6101da61066f565b6040516101e79190611eb2565b60405180910390f35b61020a60048036038101906102059190611ecd565b610695565b005b61022660048036038101906102219190611f20565b6106f5565b005b610242600480360381019061023d9190611ecd565b610815565b005b61025e60048036038101906102599190611d5e565b610835565b60405161026b9190611dcc565b60405180910390f35b61028e60048036038101906102899190611f20565b6108bb565b60405161029b9190611f5c565b60405180910390f35b6102ac610972565b005b6102b6610986565b6040516102c39190611dcc565b60405180910390f35b6102d46109b0565b6040516102e19190611d06565b60405180910390f35b61030460048036038101906102ff9190611fa3565b610a42565b005b610320600480360381019061031b9190612118565b610a58565b005b61033c60048036038101906103379190611d5e565b610aba565b6040516103499190611d06565b60405180910390f35b61036c6004803603810190610367919061219b565b610b22565b6040516103799190611c5b565b60405180910390f35b61039c60048036038101906103979190611f20565b610bb6565b005b60007f80ac58cd000000000000000000000000000000000000000000000000000000007bffffffffffffffffffffffffffffffffffffffffffffffffffffffff1916827bffffffffffffffffffffffffffffffffffffffffffffffffffffffff1916148061046957507f5b5e139f000000000000000000000000000000000000000000000000000000007bffffffffffffffffffffffffffffffffffffffffffffffffffffffff1916827bffffffffffffffffffffffffffffffffffffffffffffffffffffffff1916145b80610479575061047882610c39565b5b9050919050565b60606000805461048f9061220a565b80601f01602080910402602001604051908101604052809291908181526020018280546104bb9061220a565b80156105085780601f106104dd57610100808354040283529160200191610508565b820191906000526020600020905b8154815290600101906020018083116104eb57829003601f168201915b5050505050905090565b600061051d82610ca3565b6004600083815260200190815260200160002060009054906101000a900473ffffffffffffffffffffffffffffffffffffffff169050919050565b600061056382610835565b90508073ffffffffffffffffffffffffffffffffffffffff168373ffffffffffffffffffffffffffffffffffffffff16036105d3576040517f08c379a00000000000000000000000000000000000000000000000000000000081526004016105ca906122ad565b60405180910390fd5b8073ffffffffffffffffffffffffffffffffffffffff166105f2610cee565b73ffffffffffffffffffffffffffffffffffffffff16148061062157506106208161061b610cee565b610b22565b5b610660576040517f08c379a00000000000000000000000000000000000000000000000000000000081526004016106579061233f565b60405180910390fd5b61066a8383610cf6565b505050565b600760009054906101000a900473ffffffffffffffffffffffffffffffffffffffff1681565b6106a66106a0610cee565b82610daf565b6106e5576040517f08c379a00000000000000000000000000000000000000000000000000000000081526004016106dc906123d1565b60405180910390fd5b6106f0838383610e44565b505050565b6000600760009054906101000a900473ffffffffffffffffffffffffffffffffffffffff1673ffffffffffffffffffffffffffffffffffffffff166370a08231336040518263ffffffff167c010000000000000000000000000000000000000000000000000000000002815260040161076e9190611dcc565b602060405180830381865afa15801561078b573d6000803e3d6000fd5b505050506040513d601f19601f820116820180604052508101906107af9190612406565b116107ef576040517f08c379a00000000000000000000000000000000000000000000000000000000081526004016107e6906124a5565b60405180910390fd5b60006107fb600861113d565b9050610807600861114b565b6108118282611161565b5050565b61083083838360405180602001604052806000815250610a58565b505050565b6000806108418361117f565b9050600073ffffffffffffffffffffffffffffffffffffffff168173ffffffffffffffffffffffffffffffffffffffff16036108b2576040517f08c379a00000000000000000000000000000000000000000000000000000000081526004016108a990612511565b60405180910390fd5b80915050919050565b60008073ffffffffffffffffffffffffffffffffffffffff168273ffffffffffffffffffffffffffffffffffffffff160361092b576040517f08c379a0000000000000000000000000000000000000000000000000000000008152600401610922906125a3565b60405180910390fd5b600360008373ffffffffffffffffffffffffffffffffffffffff1673ffffffffffffffffffffffffffffffffffffffff168152602001908152602001600020549050919050565b61097a6111bc565b610984600061123a565b565b6000600660009054906101000a900473ffffffffffffffffffffffffffffffffffffffff16905090565b6060600180546109bf9061220a565b80601f01602080910402602001604051908101604052809291908181526020018280546109eb9061220a565b8015610a385780601f10610a0d57610100808354040283529160200191610a38565b820191906000526020600020905b815481529060010190602001808311610a1b57829003601f168201915b5050505050905090565b610a54610a4d610cee565b8383611300565b5050565b610a69610a63610cee565b83610daf565b610aa8576040517f08c379a0000000000000000000000000000000000000000000000000000000008152600401610a9f906123d1565b60405180910390fd5b610ab48484848461146c565b50505050565b6060610ac582610ca3565b6000610acf6114c8565b90506000815111610aef5760405180602001604052806000815250610b1a565b80610af9846114df565b604051602001610b0a9291906125ff565b6040516020818303038152906040525b915050919050565b6000600560008473ffffffffffffffffffffffffffffffffffffffff1673ffffffffffffffffffffffffffffffffffffffff16815260200190815260200160002060008373ffffffffffffffffffffffffffffffffffffffff1673ffffffffffffffffffffffffffffffffffffffff16815260200190815260200160002060009054906101000a900460ff16905092915050565b610bbe6111bc565b600073ffffffffffffffffffffffffffffffffffffffff168173ffffffffffffffffffffffffffffffffffffffff1603610c2d576040517f08c379a0000000000000000000000000000000000000000000000000000000008152600401610c2490612695565b60405180910390fd5b610c368161123a565b50565b60007f01ffc9a7000000000000000000000000000000000000000000000000000000007bffffffffffffffffffffffffffffffffffffffffffffffffffffffff1916827bffffffffffffffffffffffffffffffffffffffffffffffffffffffff1916149050919050565b610cac816115ad565b610ceb576040517f08c379a0000000000000000000000000000000000000000000000000000000008152600401610ce290612511565b60405180910390fd5b50565b600033905090565b816004600083815260200190815260200160002060006101000a81548173ffffffffffffffffffffffffffffffffffffffff021916908373ffffffffffffffffffffffffffffffffffffffff160217905550808273ffffffffffffffffffffffffffffffffffffffff16610d6983610835565b73ffffffffffffffffffffffffffffffffffffffff167f8c5be1e5ebec7d5bd14f71427d1e84f3dd0314c0f7b2291e5b200ac8c7c3b92560405160405180910390a45050565b600080610dbb83610835565b90508073ffffffffffffffffffffffffffffffffffffffff168473ffffffffffffffffffffffffffffffffffffffff161480610dfd5750610dfc8185610b22565b5b80610e3b57508373ffffffffffffffffffffffffffffffffffffffff16610e2384610512565b73ffffffffffffffffffffffffffffffffffffffff16145b91505092915050565b8273ffffffffffffffffffffffffffffffffffffffff16610e6482610835565b73ffffffffffffffffffffffffffffffffffffffff1614610eba576040517f08c379a0000000000000000000000000000000000000000000000000000000008152600401610eb190612727565b60405180910390fd5b600073ffffffffffffffffffffffffffffffffffffffff168273ffffffffffffffffffffffffffffffffffffffff1603610f29576040517f08c379a0000000000000000000000000000000000000000000000000000000008152600401610f20906127b9565b60405180910390fd5b610f3683838360016115ee565b8273ffffffffffffffffffffffffffffffffffffffff16610f5682610835565b73ffffffffffffffffffffffffffffffffffffffff1614610fac576040517f08c379a0000000000000000000000000000000000000000000000000000000008152600401610fa390612727565b60405180910390fd5b6004600082815260200190815260200160002060006101000a81549073ffffffffffffffffffffffffffffffffffffffff02191690556001600360008573ffffffffffffffffffffffffffffffffffffffff1673ffffffffffffffffffffffffffffffffffffffff168152602001908152602001600020600082825403925050819055506001600360008473ffffffffffffffffffffffffffffffffffffffff1673ffffffffffffffffffffffffffffffffffffffff16815260200190815260200160002060008282540192505081905550816002600083815260200190815260200160002060006101000a81548173ffffffffffffffffffffffffffffffffffffffff021916908373ffffffffffffffffffffffffffffffffffffffff160217905550808273ffffffffffffffffffffffffffffffffffffffff168473ffffffffffffffffffffffffffffffffffffffff167fddf252ad1be2c89b69c2b068fc378daa952ba7f163c4a11628f55a4df523b3ef60405160405180910390a461113883838360016115f4565b505050565b600081600001549050919050565b6001816000016000828254019250508190555050565b61117b8282604051806020016040528060008152506115fa565b5050565b60006002600083815260200190815260200160002060009054906101000a900473ffffffffffffffffffffffffffffffffffffffff169050919050565b6111c4610cee565b73ffffffffffffffffffffffffffffffffffffffff166111e2610986565b73ffffffffffffffffffffffffffffffffffffffff1614611238576040517f08c379a000000000000000000000000000000000000000000000000000000000815260040161122f90612825565b60405180910390fd5b565b6000600660009054906101000a900473ffffffffffffffffffffffffffffffffffffffff16905081600660006101000a81548173ffffffffffffffffffffffffffffffffffffffff021916908373ffffffffffffffffffffffffffffffffffffffff1602179055508173ffffffffffffffffffffffffffffffffffffffff168173ffffffffffffffffffffffffffffffffffffffff167f8be0079c531659141344cd1fd0a4f28419497f9722a3daafe3b4186f6b6457e060405160405180910390a35050565b8173ffffffffffffffffffffffffffffffffffffffff168373ffffffffffffffffffffffffffffffffffffffff160361136e576040517f08c379a000000000000000000000000000000000000000000000000000000000815260040161136590612891565b60405180910390fd5b80600560008573ffffffffffffffffffffffffffffffffffffffff1673ffffffffffffffffffffffffffffffffffffffff16815260200190815260200160002060008473ffffffffffffffffffffffffffffffffffffffff1673ffffffffffffffffffffffffffffffffffffffff16815260200190815260200160002060006101000a81548160ff0219169083151502179055508173ffffffffffffffffffffffffffffffffffffffff168373ffffffffffffffffffffffffffffffffffffffff167f17307eab39ab6107e8899845ad3d59bd9653f200f220920489ca2b5937696c318360405161145f9190611c5b565b60405180910390a3505050565b611477848484610e44565b61148384848484611655565b6114c2576040517f08c379a00000000000000000000000000000000000000000000000000000000081526004016114b990612923565b60405180910390fd5b50505050565b606060405180602001604052806000815250905090565b6060600060016114ee84611814565b01905060008167ffffffffffffffff81111561150d5761150c611fed565b5b6040519080825280601f01601f19166020018201604052801561153f5781602001600182028036833780820191505090505b509050600082602001820190505b6001156115a2578080600190039150507f3031323334353637383961626364656600000000000000000000000000000000600a86061a8153600a858161159657611595612943565b5b0494506000850361154d575b819350505050919050565b60008073ffffffffffffffffffffffffffffffffffffffff166115cf8361117f565b73ffffffffffffffffffffffffffffffffffffffff1614159050919050565b50505050565b50505050565b6116048383611967565b6116116000848484611655565b611650576040517f08c379a000000000000000000000000000000000000000000000000000000000815260040161164790612923565b60405180910390fd5b505050565b60006116768473ffffffffffffffffffffffffffffffffffffffff16611b84565b15611807578373ffffffffffffffffffffffffffffffffffffffff1663150b7a0261169f610cee565b8786866040518563ffffffff167c01000000000000000000000000000000000000000000000000000000000281526004016116dd94939291906129c7565b6020604051808303816000875af192505050801561171957506040513d601f19601f820116820180604052508101906117169190612a28565b60015b61179b573d8060008114611749576040519150601f19603f3d011682016040523d82523d6000602084013e61174e565b606091505b506000815103611793576040517f08c379a000000000000000000000000000000000000000000000000000000000815260040161178a90612923565b60405180910390fd5b805181602001fd5b63150b7a027c0100000000000000000000000000000000000000000000000000000000027bffffffffffffffffffffffffffffffffffffffffffffffffffffffff1916817bffffffffffffffffffffffffffffffffffffffffffffffffffffffff19161491505061180c565b600190505b949350505050565b600080600090507a184f03e93ff9f4daa797ed6e38ed64bf6a1f0100000000000000008310611872577a184f03e93ff9f4daa797ed6e38ed64bf6a1f010000000000000000838161186857611867612943565b5b0492506040810190505b6d04ee2d6d415b85acef810000000083106118af576d04ee2d6d415b85acef810000000083816118a5576118a4612943565b5b0492506020810190505b662386f26fc1000083106118de57662386f26fc1000083816118d4576118d3612943565b5b0492506010810190505b6305f5e1008310611907576305f5e10083816118fd576118fc612943565b5b0492506008810190505b612710831061192c57612710838161192257611921612943565b5b0492506004810190505b6064831061194f576064838161194557611944612943565b5b0492506002810190505b600a831061195e576001810190505b80915050919050565b600073ffffffffffffffffffffffffffffffffffffffff168273ffffffffffffffffffffffffffffffffffffffff16036119d6576040517f08c379a00000000000000000000000000000000000000000000000000000000081526004016119cd90612aa1565b60405180910390fd5b6119df816115ad565b15611a1f576040517f08c379a0000000000000000000000000000000000000000000000000000000008152600401611a1690612b0d565b60405180910390fd5b611a2d6000838360016115ee565b611a36816115ad565b15611a76576040517f08c379a0000000000000000000000000000000000000000000000000000000008152600401611a6d90612b0d565b60405180910390fd5b6001600360008473ffffffffffffffffffffffffffffffffffffffff1673ffffffffffffffffffffffffffffffffffffffff16815260200190815260200160002060008282540192505081905550816002600083815260200190815260200160002060006101000a81548173ffffffffffffffffffffffffffffffffffffffff021916908373ffffffffffffffffffffffffffffffffffffffff160217905550808273ffffffffffffffffffffffffffffffffffffffff16600073ffffffffffffffffffffffffffffffffffffffff167fddf252ad1be2c89b69c2b068fc378daa952ba7f163c4a11628f55a4df523b3ef60405160405180910390a4611b806000838360016115f4565b5050565b6000808273ffffffffffffffffffffffffffffffffffffffff163b119050919050565b6000604051905090565b600080fd5b600080fd5b60007fffffffff0000000000000000000000000000000000000000000000000000000082169050919050565b611bf081611bbb565b8114611bfb57600080fd5b50565b600081359050611c0d81611be7565b92915050565b600060208284031215611c2957611c28611bb1565b5b6000611c3784828501611bfe565b91505092915050565b60008115159050919050565b611c5581611c40565b82525050565b6000602082019050611c706000830184611c4c565b92915050565b600081519050919050565b600082825260208201905092915050565b60005b83811015611cb0578082015181840152602081019050611c95565b60008484015250505050565b6000601f19601f8301169050919050565b6000611cd882611c76565b611ce28185611c81565b9350611cf2818560208601611c92565b611cfb81611cbc565b840191505092915050565b60006020820190508181036000830152611d208184611ccd565b905092915050565b6000819050919050565b611d3b81611d28565b8114611d4657600080fd5b50565b600081359050611d5881611d32565b92915050565b600060208284031215611d7457611d73611bb1565b5b6000611d8284828501611d49565b91505092915050565b600073ffffffffffffffffffffffffffffffffffffffff82169050919050565b6000611db682611d8b565b9050919050565b611dc681611dab565b82525050565b6000602082019050611de16000830184611dbd565b92915050565b611df081611dab565b8114611dfb57600080fd5b50565b600081359050611e0d81611de7565b92915050565b60008060408385031215611e2a57611e29611bb1565b5b6000611e3885828601611dfe565b9250506020611e4985828601611d49565b9150509250929050565b6000819050919050565b6000611e78611e73611e6e84611d8b565b611e53565b611d8b565b9050919050565b6000611e8a82611e5d565b9050919050565b6000611e9c82611e7f565b9050919050565b611eac81611e91565b82525050565b6000602082019050611ec76000830184611ea3565b92915050565b600080600060608486031215611ee657611ee5611bb1565b5b6000611ef486828701611dfe565b9350506020611f0586828701611dfe565b9250506040611f1686828701611d49565b9150509250925092565b600060208284031215611f3657611f35611bb1565b5b6000611f4484828501611dfe565b91505092915050565b611f5681611d28565b82525050565b6000602082019050611f716000830184611f4d565b92915050565b611f8081611c40565b8114611f8b57600080fd5b50565b600081359050611f9d81611f77565b92915050565b60008060408385031215611fba57611fb9611bb1565b5b6000611fc885828601611dfe565b9250506020611fd985828601611f8e565b9150509250929050565b600080fd5b600080fd5b7f4e487b7100000000000000000000000000000000000000000000000000000000600052604160045260246000fd5b61202582611cbc565b810181811067ffffffffffffffff8211171561204457612043611fed565b5b80604052505050565b6000612057611ba7565b9050612063828261201c565b919050565b600067ffffffffffffffff82111561208357612082611fed565b5b61208c82611cbc565b9050602081019050919050565b82818337600083830152505050565b60006120bb6120b684612068565b61204d565b9050828152602081018484840111156120d7576120d6611fe8565b5b6120e2848285612099565b509392505050565b600082601f8301126120ff576120fe611fe3565b5b813561210f8482602086016120a8565b91505092915050565b6000806000806080858703121561213257612131611bb1565b5b600061214087828801611dfe565b945050602061215187828801611dfe565b935050604061216287828801611d49565b925050606085013567ffffffffffffffff81111561218357612182611bb6565b5b61218f878288016120ea565b91505092959194509250565b600080604083850312156121b2576121b1611bb1565b5b60006121c085828601611dfe565b92505060206121d185828601611dfe565b9150509250929050565b7f4e487b7100000000000000000000000000000000000000000000000000000000600052602260045260246000fd5b6000600282049050600182168061222257607f821691505b602082108103612235576122346121db565b5b50919050565b7f4552433732313a20617070726f76616c20746f2063757272656e74206f776e6560008201527f7200000000000000000000000000000000000000000000000000000000000000602082015250565b6000612297602183611c81565b91506122a28261223b565b604082019050919050565b600060208201905081810360008301526122c68161228a565b9050919050565b7f4552433732313a20617070726f76652063616c6c6572206973206e6f7420746f60008201527f6b656e206f776e6572206f7220617070726f76656420666f7220616c6c000000602082015250565b6000612329603d83611c81565b9150612334826122cd565b604082019050919050565b600060208201905081810360008301526123588161231c565b9050919050565b7f4552433732313a2063616c6c6572206973206e6f7420746f6b656e206f776e6560008201527f72206f7220617070726f76656400000000000000000000000000000000000000602082015250565b60006123bb602d83611c81565b91506123c68261235f565b604082019050919050565b600060208201905081810360008301526123ea816123ae565b9050919050565b60008151905061240081611d32565b92915050565b60006020828403121561241c5761241b611bb1565b5b600061242a848285016123f1565b91505092915050565b7f4f6e6c7920626f73734e4654206f776e6572732063616e2063616c6c2074686960008201527f732066756e6374696f6e00000000000000000000000000000000000000000000602082015250565b600061248f602a83611c81565b915061249a82612433565b604082019050919050565b600060208201905081810360008301526124be81612482565b9050919050565b7f4552433732313a20696e76616c696420746f6b656e2049440000000000000000600082015250565b60006124fb601883611c81565b9150612506826124c5565b602082019050919050565b6000602082019050818103600083015261252a816124ee565b9050919050565b7f4552433732313a2061646472657373207a65726f206973206e6f74206120766160008201527f6c6964206f776e65720000000000000000000000000000000000000000000000602082015250565b600061258d602983611c81565b915061259882612531565b604082019050919050565b600060208201905081810360008301526125bc81612580565b9050919050565b600081905092915050565b60006125d982611c76565b6125e381856125c3565b93506125f3818560208601611c92565b80840191505092915050565b600061260b82856125ce565b915061261782846125ce565b91508190509392505050565b7f4f776e61626c653a206e6577206f776e657220697320746865207a65726f206160008201527f6464726573730000000000000000000000000000000000000000000000000000602082015250565b600061267f602683611c81565b915061268a82612623565b604082019050919050565b600060208201905081810360008301526126ae81612672565b9050919050565b7f4552433732313a207472616e736665722066726f6d20696e636f72726563742060008201527f6f776e6572000000000000000000000000000000000000000000000000000000602082015250565b6000612711602583611c81565b915061271c826126b5565b604082019050919050565b6000602082019050818103600083015261274081612704565b9050919050565b7f4552433732313a207472616e7366657220746f20746865207a65726f2061646460008201527f7265737300000000000000000000000000000000000000000000000000000000602082015250565b60006127a3602483611c81565b91506127ae82612747565b604082019050919050565b600060208201905081810360008301526127d281612796565b9050919050565b7f4f776e61626c653a2063616c6c6572206973206e6f7420746865206f776e6572600082015250565b600061280f602083611c81565b915061281a826127d9565b602082019050919050565b6000602082019050818103600083015261283e81612802565b9050919050565b7f4552433732313a20617070726f766520746f2063616c6c657200000000000000600082015250565b600061287b601983611c81565b915061288682612845565b602082019050919050565b600060208201905081810360008301526128aa8161286e565b9050919050565b7f4552433732313a207472616e7366657220746f206e6f6e20455243373231526560008201527f63656976657220696d706c656d656e7465720000000000000000000000000000602082015250565b600061290d603283611c81565b9150612918826128b1565b604082019050919050565b6000602082019050818103600083015261293c81612900565b9050919050565b7f4e487b7100000000000000000000000000000000000000000000000000000000600052601260045260246000fd5b600081519050919050565b600082825260208201905092915050565b600061299982612972565b6129a3818561297d565b93506129b3818560208601611c92565b6129bc81611cbc565b840191505092915050565b60006080820190506129dc6000830187611dbd565b6129e96020830186611dbd565b6129f66040830185611f4d565b8181036060830152612a08818461298e565b905095945050505050565b600081519050612a2281611be7565b92915050565b600060208284031215612a3e57612a3d611bb1565b5b6000612a4c84828501612a13565b91505092915050565b7f4552433732313a206d696e7420746f20746865207a65726f2061646472657373600082015250565b6000612a8b602083611c81565b9150612a9682612a55565b602082019050919050565b60006020820190508181036000830152612aba81612a7e565b9050919050565b7f4552433732313a20746f6b656e20616c7265616479206d696e74656400000000600082015250565b6000612af7601c83611c81565b9150612b0282612ac1565b602082019050919050565b60006020820190508181036000830152612b2681612aea565b905091905056fea26469706673582212207f06281f5eeafdc0f84d21bace03cbfe30d10a0cf3a6fe010edf4ec1dc46c8eb64736f6c63430008150033",
  "immutableReferences": {},
  "source": "// SPDX-License-Identifier: MIT\npragma solidity >=0.4.22 <0.9.0; \n\nimport \"@openzeppelin/contracts/access/Ownable.sol\"; // to handle the ownership of the contract\nimport \"@openzeppelin/contracts/utils/Counters.sol\"; // to auto-increment the tokenID\nimport \"@openzeppelin/contracts/token/ERC721/ERC721.sol\"; // NFT's standard\n\ncontract AdminNFT is ERC721, Ownable {\n\n    IERC721 public bossNFT; // Reference to your BossNFT contract\n\n    using Counters for Counters.Counter;\n    Counters.Counter private _tokenIdCounter;\n\n    constructor(address _nftAddress) ERC721(\"AdminNFT\", \"ADM\") {\n        bossNFT = IERC721(_nftAddress);\n    }\n\n    modifier onlyBossNFTOwner () {\n        // require that the sender has at least 1 BossNFT\n        require(\n            bossNFT.balanceOf(msg.sender) > 0,\n            \"Only bossNFT owners can call this function\"\n        );\n        _; // placeholder for the statement\n    }\n\n    /// The tokenId is auto-incremented\n    function safeMint(address to) public onlyBossNFTOwner {\n        uint256 tokenId = _tokenIdCounter.current();\n        _tokenIdCounter.increment();\n        _safeMint(to, tokenId);\n    }\n\n\n}",
  "sourcePath": "/Users/andrep/dev/git/blockchain-exam-PoliMi/flutter/smart-contracts/contracts/AdminNFT.sol",
  "compiler": {
    "name": "solc",
    "version": "0.8.21+commit.d9974bed.Emscripten.clang"
  },
  "schemaVersion": "3.4.16",
  "updatedAt": "2023-10-04T14:28:09.622Z",
  "networkType": "ethereum",
  "devdoc": {
    "events": {
      "Approval(address,address,uint256)": {
        "details": "Emitted when `owner` enables `approved` to manage the `tokenId` token."
      },
      "ApprovalForAll(address,address,bool)": {
        "details": "Emitted when `owner` enables or disables (`approved`) `operator` to manage all of its assets."
      },
      "Transfer(address,address,uint256)": {
        "details": "Emitted when `tokenId` token is transferred from `from` to `to`."
      }
    },
    "kind": "dev",
    "methods": {
      "approve(address,uint256)": {
        "details": "See {IERC721-approve}."
      },
      "balanceOf(address)": {
        "details": "See {IERC721-balanceOf}."
      },
      "getApproved(uint256)": {
        "details": "See {IERC721-getApproved}."
      },
      "isApprovedForAll(address,address)": {
        "details": "See {IERC721-isApprovedForAll}."
      },
      "name()": {
        "details": "See {IERC721Metadata-name}."
      },
      "owner()": {
        "details": "Returns the address of the current owner."
      },
      "ownerOf(uint256)": {
        "details": "See {IERC721-ownerOf}."
      },
      "renounceOwnership()": {
        "details": "Leaves the contract without owner. It will not be possible to call `onlyOwner` functions. Can only be called by the current owner. NOTE: Renouncing ownership will leave the contract without an owner, thereby disabling any functionality that is only available to the owner."
      },
      "safeTransferFrom(address,address,uint256)": {
        "details": "See {IERC721-safeTransferFrom}."
      },
      "safeTransferFrom(address,address,uint256,bytes)": {
        "details": "See {IERC721-safeTransferFrom}."
      },
      "setApprovalForAll(address,bool)": {
        "details": "See {IERC721-setApprovalForAll}."
      },
      "supportsInterface(bytes4)": {
        "details": "See {IERC165-supportsInterface}."
      },
      "symbol()": {
        "details": "See {IERC721Metadata-symbol}."
      },
      "tokenURI(uint256)": {
        "details": "See {IERC721Metadata-tokenURI}."
      },
      "transferFrom(address,address,uint256)": {
        "details": "See {IERC721-transferFrom}."
      },
      "transferOwnership(address)": {
        "details": "Transfers ownership of the contract to a new account (`newOwner`). Can only be called by the current owner."
      }
    },
    "version": 1
  },
  "userdoc": {
    "kind": "user",
    "methods": {
      "safeMint(address)": {
        "notice": "The tokenId is auto-incremented"
      }
    },
    "version": 1
  }
}