{
  "contractName": "BossNFT",
  "abi": [
    {
      "inputs": [],
      "stateMutability": "nonpayable",
      "type": "constructor"
    },
    {
      "anonymous": false,
      "inputs": [
        {
          "indexed": true,
          "internalType": "address",
          "name": "owner",
          "type": "address"
        },
        {
          "indexed": true,
          "internalType": "address",
          "name": "approved",
          "type": "address"
        },
        {
          "indexed": true,
          "internalType": "uint256",
          "name": "tokenId",
          "type": "uint256"
        }
      ],
      "name": "Approval",
      "type": "event"
    },
    {
      "anonymous": false,
      "inputs": [
        {
          "indexed": true,
          "internalType": "address",
          "name": "owner",
          "type": "address"
        },
        {
          "indexed": true,
          "internalType": "address",
          "name": "operator",
          "type": "address"
        },
        {
          "indexed": false,
          "internalType": "bool",
          "name": "approved",
          "type": "bool"
        }
      ],
      "name": "ApprovalForAll",
      "type": "event"
    },
    {
      "anonymous": false,
      "inputs": [
        {
          "indexed": true,
          "internalType": "address",
          "name": "previousOwner",
          "type": "address"
        },
        {
          "indexed": true,
          "internalType": "address",
          "name": "newOwner",
          "type": "address"
        }
      ],
      "name": "OwnershipTransferred",
      "type": "event"
    },
    {
      "anonymous": false,
      "inputs": [
        {
          "indexed": true,
          "internalType": "address",
          "name": "from",
          "type": "address"
        },
        {
          "indexed": true,
          "internalType": "address",
          "name": "to",
          "type": "address"
        },
        {
          "indexed": true,
          "internalType": "uint256",
          "name": "tokenId",
          "type": "uint256"
        }
      ],
      "name": "Transfer",
      "type": "event"
    },
    {
      "inputs": [
        {
          "internalType": "address",
          "name": "to",
          "type": "address"
        },
        {
          "internalType": "uint256",
          "name": "tokenId",
          "type": "uint256"
        }
      ],
      "name": "approve",
      "outputs": [],
      "stateMutability": "nonpayable",
      "type": "function"
    },
    {
      "inputs": [
        {
          "internalType": "address",
          "name": "owner",
          "type": "address"
        }
      ],
      "name": "balanceOf",
      "outputs": [
        {
          "internalType": "uint256",
          "name": "",
          "type": "uint256"
        }
      ],
      "stateMutability": "view",
      "type": "function",
      "constant": true
    },
    {
      "inputs": [
        {
          "internalType": "uint256",
          "name": "tokenId",
          "type": "uint256"
        }
      ],
      "name": "getApproved",
      "outputs": [
        {
          "internalType": "address",
          "name": "",
          "type": "address"
        }
      ],
      "stateMutability": "view",
      "type": "function",
      "constant": true
    },
    {
      "inputs": [
        {
          "internalType": "address",
          "name": "owner",
          "type": "address"
        },
        {
          "internalType": "address",
          "name": "operator",
          "type": "address"
        }
      ],
      "name": "isApprovedForAll",
      "outputs": [
        {
          "internalType": "bool",
          "name": "",
          "type": "bool"
        }
      ],
      "stateMutability": "view",
      "type": "function",
      "constant": true
    },
    {
      "inputs": [],
      "name": "name",
      "outputs": [
        {
          "internalType": "string",
          "name": "",
          "type": "string"
        }
      ],
      "stateMutability": "view",
      "type": "function",
      "constant": true
    },
    {
      "inputs": [],
      "name": "owner",
      "outputs": [
        {
          "internalType": "address",
          "name": "",
          "type": "address"
        }
      ],
      "stateMutability": "view",
      "type": "function",
      "constant": true
    },
    {
      "inputs": [
        {
          "internalType": "uint256",
          "name": "tokenId",
          "type": "uint256"
        }
      ],
      "name": "ownerOf",
      "outputs": [
        {
          "internalType": "address",
          "name": "",
          "type": "address"
        }
      ],
      "stateMutability": "view",
      "type": "function",
      "constant": true
    },
    {
      "inputs": [],
      "name": "renounceOwnership",
      "outputs": [],
      "stateMutability": "nonpayable",
      "type": "function"
    },
    {
      "inputs": [
        {
          "internalType": "address",
          "name": "from",
          "type": "address"
        },
        {
          "internalType": "address",
          "name": "to",
          "type": "address"
        },
        {
          "internalType": "uint256",
          "name": "tokenId",
          "type": "uint256"
        }
      ],
      "name": "safeTransferFrom",
      "outputs": [],
      "stateMutability": "nonpayable",
      "type": "function"
    },
    {
      "inputs": [
        {
          "internalType": "address",
          "name": "from",
          "type": "address"
        },
        {
          "internalType": "address",
          "name": "to",
          "type": "address"
        },
        {
          "internalType": "uint256",
          "name": "tokenId",
          "type": "uint256"
        },
        {
          "internalType": "bytes",
          "name": "data",
          "type": "bytes"
        }
      ],
      "name": "safeTransferFrom",
      "outputs": [],
      "stateMutability": "nonpayable",
      "type": "function"
    },
    {
      "inputs": [
        {
          "internalType": "address",
          "name": "operator",
          "type": "address"
        },
        {
          "internalType": "bool",
          "name": "approved",
          "type": "bool"
        }
      ],
      "name": "setApprovalForAll",
      "outputs": [],
      "stateMutability": "nonpayable",
      "type": "function"
    },
    {
      "inputs": [
        {
          "internalType": "bytes4",
          "name": "interfaceId",
          "type": "bytes4"
        }
      ],
      "name": "supportsInterface",
      "outputs": [
        {
          "internalType": "bool",
          "name": "",
          "type": "bool"
        }
      ],
      "stateMutability": "view",
      "type": "function",
      "constant": true
    },
    {
      "inputs": [],
      "name": "symbol",
      "outputs": [
        {
          "internalType": "string",
          "name": "",
          "type": "string"
        }
      ],
      "stateMutability": "view",
      "type": "function",
      "constant": true
    },
    {
      "inputs": [
        {
          "internalType": "uint256",
          "name": "tokenId",
          "type": "uint256"
        }
      ],
      "name": "tokenURI",
      "outputs": [
        {
          "internalType": "string",
          "name": "",
          "type": "string"
        }
      ],
      "stateMutability": "view",
      "type": "function",
      "constant": true
    },
    {
      "inputs": [
        {
          "internalType": "address",
          "name": "from",
          "type": "address"
        },
        {
          "internalType": "address",
          "name": "to",
          "type": "address"
        },
        {
          "internalType": "uint256",
          "name": "tokenId",
          "type": "uint256"
        }
      ],
      "name": "transferFrom",
      "outputs": [],
      "stateMutability": "nonpayable",
      "type": "function"
    },
    {
      "inputs": [
        {
          "internalType": "address",
          "name": "newOwner",
          "type": "address"
        }
      ],
      "name": "transferOwnership",
      "outputs": [],
      "stateMutability": "nonpayable",
      "type": "function"
    },
    {
      "inputs": [
        {
          "internalType": "address",
          "name": "to",
          "type": "address"
        }
      ],
      "name": "safeMint",
      "outputs": [],
      "stateMutability": "nonpayable",
      "type": "function"
    },
    {
      "inputs": [],
      "name": "lastTokenId",
      "outputs": [
        {
          "internalType": "uint256",
          "name": "",
          "type": "uint256"
        }
      ],
      "stateMutability": "view",
      "type": "function",
      "constant": true
    }
  ],
  "bytecode": "0x60806040523480156200001157600080fd5b506040518060400160405280600781526020017f426f73734e4654000000000000000000000000000000000000000000000000008152506040518060400160405280600381526020017f425353000000000000000000000000000000000000000000000000000000000081525081600090816200008f91906200042a565b508060019081620000a191906200042a565b505050620000d6620000c1620000dc640100000000026401000000009004565b620000e4640100000000026401000000009004565b62000511565b600033905090565b6000600660009054906101000a900473ffffffffffffffffffffffffffffffffffffffff16905081600660006101000a81548173ffffffffffffffffffffffffffffffffffffffff021916908373ffffffffffffffffffffffffffffffffffffffff1602179055508173ffffffffffffffffffffffffffffffffffffffff168173ffffffffffffffffffffffffffffffffffffffff167f8be0079c531659141344cd1fd0a4f28419497f9722a3daafe3b4186f6b6457e060405160405180910390a35050565b600081519050919050565b7f4e487b7100000000000000000000000000000000000000000000000000000000600052604160045260246000fd5b7f4e487b7100000000000000000000000000000000000000000000000000000000600052602260045260246000fd5b600060028204905060018216806200022c57607f821691505b602082108103620002425762000241620001e4565b5b50919050565b60008190508160005260206000209050919050565b60006020601f8301049050919050565b60008160020a8302905092915050565b600060088302620002af7fffffffffffffffffffffffffffffffffffffffffffffffffffffffffffffffff826200026d565b620002bb86836200026d565b95508019841693508086168417925050509392505050565b6000819050919050565b6000819050919050565b60006200030862000302620002fc84620002d3565b620002dd565b620002d3565b9050919050565b6000819050919050565b6200032483620002e7565b6200033c62000333826200030f565b8484546200027d565b825550505050565b600090565b6200035362000344565b6200036081848462000319565b505050565b5b8181101562000388576200037c60008262000349565b60018101905062000366565b5050565b601f821115620003d757620003a18162000248565b620003ac846200025d565b81016020851015620003bc578190505b620003d4620003cb856200025d565b83018262000365565b50505b505050565b60008160020a8304905092915050565b6000620003ff60001984600802620003dc565b1980831691505092915050565b60006200041a8383620003ec565b9150826002028217905092915050565b6200043582620001aa565b67ffffffffffffffff811115620004515762000450620001b5565b5b6200045d825462000213565b6200046a8282856200038c565b600060209050601f831160018114620004a257600084156200048d578287015190505b6200049985826200040c565b86555062000509565b601f198416620004b28662000248565b60005b82811015620004dc57848901518255600182019150602085019450602081019050620004b5565b86831015620004fc5784890151620004f8601f891682620003ec565b8355505b6001600288020188555050505b505050505050565b61290e80620005216000396000f3fe608060405234801561001057600080fd5b5060043610610133576000357c010000000000000000000000000000000000000000000000000000000090048063715018a6116100bf578063b88d4fde1161008e578063b88d4fde146102e8578063c87b56dd14610304578063e985e9c514610334578063f2fde38b14610364578063f84ddf0b1461038057610133565b8063715018a6146102865780638da5cb5b1461029057806395d89b41146102ae578063a22cb465146102cc57610133565b806323b872dd1161010657806323b872dd146101d257806340d097c3146101ee57806342842e0e1461020a5780636352211e1461022657806370a082311461025657610133565b806301ffc9a71461013857806306fdde0314610168578063081812fc14610186578063095ea7b3146101b6575b600080fd5b610152600480360381019061014d9190611b0c565b61039e565b60405161015f9190611b54565b60405180910390f35b610170610480565b60405161017d9190611bff565b60405180910390f35b6101a0600480360381019061019b9190611c57565b610512565b6040516101ad9190611cc5565b60405180910390f35b6101d060048036038101906101cb9190611d0c565b610558565b005b6101ec60048036038101906101e79190611d4c565b61066f565b005b61020860048036038101906102039190611d9f565b6106cf565b005b610224600480360381019061021f9190611d4c565b6106fd565b005b610240600480360381019061023b9190611c57565b61071d565b60405161024d9190611cc5565b60405180910390f35b610270600480360381019061026b9190611d9f565b6107a3565b60405161027d9190611ddb565b60405180910390f35b61028e61085a565b005b61029861086e565b6040516102a59190611cc5565b60405180910390f35b6102b6610898565b6040516102c39190611bff565b60405180910390f35b6102e660048036038101906102e19190611e22565b61092a565b005b61030260048036038101906102fd9190611f97565b610940565b005b61031e60048036038101906103199190611c57565b6109a2565b60405161032b9190611bff565b60405180910390f35b61034e6004803603810190610349919061201a565b610a0a565b60405161035b9190611b54565b60405180910390f35b61037e60048036038101906103799190611d9f565b610a9e565b005b610388610b21565b6040516103959190611ddb565b60405180910390f35b60007f80ac58cd000000000000000000000000000000000000000000000000000000007bffffffffffffffffffffffffffffffffffffffffffffffffffffffff1916827bffffffffffffffffffffffffffffffffffffffffffffffffffffffff1916148061046957507f5b5e139f000000000000000000000000000000000000000000000000000000007bffffffffffffffffffffffffffffffffffffffffffffffffffffffff1916827bffffffffffffffffffffffffffffffffffffffffffffffffffffffff1916145b80610479575061047882610b32565b5b9050919050565b60606000805461048f90612089565b80601f01602080910402602001604051908101604052809291908181526020018280546104bb90612089565b80156105085780601f106104dd57610100808354040283529160200191610508565b820191906000526020600020905b8154815290600101906020018083116104eb57829003601f168201915b5050505050905090565b600061051d82610b9c565b6004600083815260200190815260200160002060009054906101000a900473ffffffffffffffffffffffffffffffffffffffff169050919050565b60006105638261071d565b90508073ffffffffffffffffffffffffffffffffffffffff168373ffffffffffffffffffffffffffffffffffffffff16036105d3576040517f08c379a00000000000000000000000000000000000000000000000000000000081526004016105ca9061212c565b60405180910390fd5b8073ffffffffffffffffffffffffffffffffffffffff166105f2610be7565b73ffffffffffffffffffffffffffffffffffffffff16148061062157506106208161061b610be7565b610a0a565b5b610660576040517f08c379a0000000000000000000000000000000000000000000000000000000008152600401610657906121be565b60405180910390fd5b61066a8383610bef565b505050565b61068061067a610be7565b82610ca8565b6106bf576040517f08c379a00000000000000000000000000000000000000000000000000000000081526004016106b690612250565b60405180910390fd5b6106ca838383610d3d565b505050565b6106d7611036565b60006106e360076110b4565b90506106ef60076110c2565b6106f982826110d8565b5050565b61071883838360405180602001604052806000815250610940565b505050565b600080610729836110f6565b9050600073ffffffffffffffffffffffffffffffffffffffff168173ffffffffffffffffffffffffffffffffffffffff160361079a576040517f08c379a0000000000000000000000000000000000000000000000000000000008152600401610791906122bc565b60405180910390fd5b80915050919050565b60008073ffffffffffffffffffffffffffffffffffffffff168273ffffffffffffffffffffffffffffffffffffffff1603610813576040517f08c379a000000000000000000000000000000000000000000000000000000000815260040161080a9061234e565b60405180910390fd5b600360008373ffffffffffffffffffffffffffffffffffffffff1673ffffffffffffffffffffffffffffffffffffffff168152602001908152602001600020549050919050565b610862611036565b61086c6000611133565b565b6000600660009054906101000a900473ffffffffffffffffffffffffffffffffffffffff16905090565b6060600180546108a790612089565b80601f01602080910402602001604051908101604052809291908181526020018280546108d390612089565b80156109205780601f106108f557610100808354040283529160200191610920565b820191906000526020600020905b81548152906001019060200180831161090357829003601f168201915b5050505050905090565b61093c610935610be7565b83836111f9565b5050565b61095161094b610be7565b83610ca8565b610990576040517f08c379a000000000000000000000000000000000000000000000000000000000815260040161098790612250565b60405180910390fd5b61099c84848484611365565b50505050565b60606109ad82610b9c565b60006109b76113c1565b905060008151116109d75760405180602001604052806000815250610a02565b806109e1846113d8565b6040516020016109f29291906123aa565b6040516020818303038152906040525b915050919050565b6000600560008473ffffffffffffffffffffffffffffffffffffffff1673ffffffffffffffffffffffffffffffffffffffff16815260200190815260200160002060008373ffffffffffffffffffffffffffffffffffffffff1673ffffffffffffffffffffffffffffffffffffffff16815260200190815260200160002060009054906101000a900460ff16905092915050565b610aa6611036565b600073ffffffffffffffffffffffffffffffffffffffff168173ffffffffffffffffffffffffffffffffffffffff1603610b15576040517f08c379a0000000000000000000000000000000000000000000000000000000008152600401610b0c90612440565b60405180910390fd5b610b1e81611133565b50565b6000610b2d60076110b4565b905090565b60007f01ffc9a7000000000000000000000000000000000000000000000000000000007bffffffffffffffffffffffffffffffffffffffffffffffffffffffff1916827bffffffffffffffffffffffffffffffffffffffffffffffffffffffff1916149050919050565b610ba5816114a6565b610be4576040517f08c379a0000000000000000000000000000000000000000000000000000000008152600401610bdb906122bc565b60405180910390fd5b50565b600033905090565b816004600083815260200190815260200160002060006101000a81548173ffffffffffffffffffffffffffffffffffffffff021916908373ffffffffffffffffffffffffffffffffffffffff160217905550808273ffffffffffffffffffffffffffffffffffffffff16610c628361071d565b73ffffffffffffffffffffffffffffffffffffffff167f8c5be1e5ebec7d5bd14f71427d1e84f3dd0314c0f7b2291e5b200ac8c7c3b92560405160405180910390a45050565b600080610cb48361071d565b90508073ffffffffffffffffffffffffffffffffffffffff168473ffffffffffffffffffffffffffffffffffffffff161480610cf65750610cf58185610a0a565b5b80610d3457508373ffffffffffffffffffffffffffffffffffffffff16610d1c84610512565b73ffffffffffffffffffffffffffffffffffffffff16145b91505092915050565b8273ffffffffffffffffffffffffffffffffffffffff16610d5d8261071d565b73ffffffffffffffffffffffffffffffffffffffff1614610db3576040517f08c379a0000000000000000000000000000000000000000000000000000000008152600401610daa906124d2565b60405180910390fd5b600073ffffffffffffffffffffffffffffffffffffffff168273ffffffffffffffffffffffffffffffffffffffff1603610e22576040517f08c379a0000000000000000000000000000000000000000000000000000000008152600401610e1990612564565b60405180910390fd5b610e2f83838360016114e7565b8273ffffffffffffffffffffffffffffffffffffffff16610e4f8261071d565b73ffffffffffffffffffffffffffffffffffffffff1614610ea5576040517f08c379a0000000000000000000000000000000000000000000000000000000008152600401610e9c906124d2565b60405180910390fd5b6004600082815260200190815260200160002060006101000a81549073ffffffffffffffffffffffffffffffffffffffff02191690556001600360008573ffffffffffffffffffffffffffffffffffffffff1673ffffffffffffffffffffffffffffffffffffffff168152602001908152602001600020600082825403925050819055506001600360008473ffffffffffffffffffffffffffffffffffffffff1673ffffffffffffffffffffffffffffffffffffffff16815260200190815260200160002060008282540192505081905550816002600083815260200190815260200160002060006101000a81548173ffffffffffffffffffffffffffffffffffffffff021916908373ffffffffffffffffffffffffffffffffffffffff160217905550808273ffffffffffffffffffffffffffffffffffffffff168473ffffffffffffffffffffffffffffffffffffffff167fddf252ad1be2c89b69c2b068fc378daa952ba7f163c4a11628f55a4df523b3ef60405160405180910390a461103183838360016114ed565b505050565b61103e610be7565b73ffffffffffffffffffffffffffffffffffffffff1661105c61086e565b73ffffffffffffffffffffffffffffffffffffffff16146110b2576040517f08c379a00000000000000000000000000000000000000000000000000000000081526004016110a9906125d0565b60405180910390fd5b565b600081600001549050919050565b6001816000016000828254019250508190555050565b6110f28282604051806020016040528060008152506114f3565b5050565b60006002600083815260200190815260200160002060009054906101000a900473ffffffffffffffffffffffffffffffffffffffff169050919050565b6000600660009054906101000a900473ffffffffffffffffffffffffffffffffffffffff16905081600660006101000a81548173ffffffffffffffffffffffffffffffffffffffff021916908373ffffffffffffffffffffffffffffffffffffffff1602179055508173ffffffffffffffffffffffffffffffffffffffff168173ffffffffffffffffffffffffffffffffffffffff167f8be0079c531659141344cd1fd0a4f28419497f9722a3daafe3b4186f6b6457e060405160405180910390a35050565b8173ffffffffffffffffffffffffffffffffffffffff168373ffffffffffffffffffffffffffffffffffffffff1603611267576040517f08c379a000000000000000000000000000000000000000000000000000000000815260040161125e9061263c565b60405180910390fd5b80600560008573ffffffffffffffffffffffffffffffffffffffff1673ffffffffffffffffffffffffffffffffffffffff16815260200190815260200160002060008473ffffffffffffffffffffffffffffffffffffffff1673ffffffffffffffffffffffffffffffffffffffff16815260200190815260200160002060006101000a81548160ff0219169083151502179055508173ffffffffffffffffffffffffffffffffffffffff168373ffffffffffffffffffffffffffffffffffffffff167f17307eab39ab6107e8899845ad3d59bd9653f200f220920489ca2b5937696c31836040516113589190611b54565b60405180910390a3505050565b611370848484610d3d565b61137c8484848461154e565b6113bb576040517f08c379a00000000000000000000000000000000000000000000000000000000081526004016113b2906126ce565b60405180910390fd5b50505050565b606060405180602001604052806000815250905090565b6060600060016113e78461170d565b01905060008167ffffffffffffffff81111561140657611405611e6c565b5b6040519080825280601f01601f1916602001820160405280156114385781602001600182028036833780820191505090505b509050600082602001820190505b60011561149b578080600190039150507f3031323334353637383961626364656600000000000000000000000000000000600a86061a8153600a858161148f5761148e6126ee565b5b04945060008503611446575b819350505050919050565b60008073ffffffffffffffffffffffffffffffffffffffff166114c8836110f6565b73ffffffffffffffffffffffffffffffffffffffff1614159050919050565b50505050565b50505050565b6114fd8383611860565b61150a600084848461154e565b611549576040517f08c379a0000000000000000000000000000000000000000000000000000000008152600401611540906126ce565b60405180910390fd5b505050565b600061156f8473ffffffffffffffffffffffffffffffffffffffff16611a7d565b15611700578373ffffffffffffffffffffffffffffffffffffffff1663150b7a02611598610be7565b8786866040518563ffffffff167c01000000000000000000000000000000000000000000000000000000000281526004016115d69493929190612772565b6020604051808303816000875af192505050801561161257506040513d601f19601f8201168201806040525081019061160f91906127d3565b60015b611694573d8060008114611642576040519150601f19603f3d011682016040523d82523d6000602084013e611647565b606091505b50600081510361168c576040517f08c379a0000000000000000000000000000000000000000000000000000000008152600401611683906126ce565b60405180910390fd5b805181602001fd5b63150b7a027c0100000000000000000000000000000000000000000000000000000000027bffffffffffffffffffffffffffffffffffffffffffffffffffffffff1916817bffffffffffffffffffffffffffffffffffffffffffffffffffffffff191614915050611705565b600190505b949350505050565b600080600090507a184f03e93ff9f4daa797ed6e38ed64bf6a1f010000000000000000831061176b577a184f03e93ff9f4daa797ed6e38ed64bf6a1f0100000000000000008381611761576117606126ee565b5b0492506040810190505b6d04ee2d6d415b85acef810000000083106117a8576d04ee2d6d415b85acef8100000000838161179e5761179d6126ee565b5b0492506020810190505b662386f26fc1000083106117d757662386f26fc1000083816117cd576117cc6126ee565b5b0492506010810190505b6305f5e1008310611800576305f5e10083816117f6576117f56126ee565b5b0492506008810190505b612710831061182557612710838161181b5761181a6126ee565b5b0492506004810190505b60648310611848576064838161183e5761183d6126ee565b5b0492506002810190505b600a8310611857576001810190505b80915050919050565b600073ffffffffffffffffffffffffffffffffffffffff168273ffffffffffffffffffffffffffffffffffffffff16036118cf576040517f08c379a00000000000000000000000000000000000000000000000000000000081526004016118c69061284c565b60405180910390fd5b6118d8816114a6565b15611918576040517f08c379a000000000000000000000000000000000000000000000000000000000815260040161190f906128b8565b60405180910390fd5b6119266000838360016114e7565b61192f816114a6565b1561196f576040517f08c379a0000000000000000000000000000000000000000000000000000000008152600401611966906128b8565b60405180910390fd5b6001600360008473ffffffffffffffffffffffffffffffffffffffff1673ffffffffffffffffffffffffffffffffffffffff16815260200190815260200160002060008282540192505081905550816002600083815260200190815260200160002060006101000a81548173ffffffffffffffffffffffffffffffffffffffff021916908373ffffffffffffffffffffffffffffffffffffffff160217905550808273ffffffffffffffffffffffffffffffffffffffff16600073ffffffffffffffffffffffffffffffffffffffff167fddf252ad1be2c89b69c2b068fc378daa952ba7f163c4a11628f55a4df523b3ef60405160405180910390a4611a796000838360016114ed565b5050565b6000808273ffffffffffffffffffffffffffffffffffffffff163b119050919050565b6000604051905090565b600080fd5b600080fd5b60007fffffffff0000000000000000000000000000000000000000000000000000000082169050919050565b611ae981611ab4565b8114611af457600080fd5b50565b600081359050611b0681611ae0565b92915050565b600060208284031215611b2257611b21611aaa565b5b6000611b3084828501611af7565b91505092915050565b60008115159050919050565b611b4e81611b39565b82525050565b6000602082019050611b696000830184611b45565b92915050565b600081519050919050565b600082825260208201905092915050565b60005b83811015611ba9578082015181840152602081019050611b8e565b60008484015250505050565b6000601f19601f8301169050919050565b6000611bd182611b6f565b611bdb8185611b7a565b9350611beb818560208601611b8b565b611bf481611bb5565b840191505092915050565b60006020820190508181036000830152611c198184611bc6565b905092915050565b6000819050919050565b611c3481611c21565b8114611c3f57600080fd5b50565b600081359050611c5181611c2b565b92915050565b600060208284031215611c6d57611c6c611aaa565b5b6000611c7b84828501611c42565b91505092915050565b600073ffffffffffffffffffffffffffffffffffffffff82169050919050565b6000611caf82611c84565b9050919050565b611cbf81611ca4565b82525050565b6000602082019050611cda6000830184611cb6565b92915050565b611ce981611ca4565b8114611cf457600080fd5b50565b600081359050611d0681611ce0565b92915050565b60008060408385031215611d2357611d22611aaa565b5b6000611d3185828601611cf7565b9250506020611d4285828601611c42565b9150509250929050565b600080600060608486031215611d6557611d64611aaa565b5b6000611d7386828701611cf7565b9350506020611d8486828701611cf7565b9250506040611d9586828701611c42565b9150509250925092565b600060208284031215611db557611db4611aaa565b5b6000611dc384828501611cf7565b91505092915050565b611dd581611c21565b82525050565b6000602082019050611df06000830184611dcc565b92915050565b611dff81611b39565b8114611e0a57600080fd5b50565b600081359050611e1c81611df6565b92915050565b60008060408385031215611e3957611e38611aaa565b5b6000611e4785828601611cf7565b9250506020611e5885828601611e0d565b9150509250929050565b600080fd5b600080fd5b7f4e487b7100000000000000000000000000000000000000000000000000000000600052604160045260246000fd5b611ea482611bb5565b810181811067ffffffffffffffff82111715611ec357611ec2611e6c565b5b80604052505050565b6000611ed6611aa0565b9050611ee28282611e9b565b919050565b600067ffffffffffffffff821115611f0257611f01611e6c565b5b611f0b82611bb5565b9050602081019050919050565b82818337600083830152505050565b6000611f3a611f3584611ee7565b611ecc565b905082815260208101848484011115611f5657611f55611e67565b5b611f61848285611f18565b509392505050565b600082601f830112611f7e57611f7d611e62565b5b8135611f8e848260208601611f27565b91505092915050565b60008060008060808587031215611fb157611fb0611aaa565b5b6000611fbf87828801611cf7565b9450506020611fd087828801611cf7565b9350506040611fe187828801611c42565b925050606085013567ffffffffffffffff81111561200257612001611aaf565b5b61200e87828801611f69565b91505092959194509250565b6000806040838503121561203157612030611aaa565b5b600061203f85828601611cf7565b925050602061205085828601611cf7565b9150509250929050565b7f4e487b7100000000000000000000000000000000000000000000000000000000600052602260045260246000fd5b600060028204905060018216806120a157607f821691505b6020821081036120b4576120b361205a565b5b50919050565b7f4552433732313a20617070726f76616c20746f2063757272656e74206f776e6560008201527f7200000000000000000000000000000000000000000000000000000000000000602082015250565b6000612116602183611b7a565b9150612121826120ba565b604082019050919050565b6000602082019050818103600083015261214581612109565b9050919050565b7f4552433732313a20617070726f76652063616c6c6572206973206e6f7420746f60008201527f6b656e206f776e6572206f7220617070726f76656420666f7220616c6c000000602082015250565b60006121a8603d83611b7a565b91506121b38261214c565b604082019050919050565b600060208201905081810360008301526121d78161219b565b9050919050565b7f4552433732313a2063616c6c6572206973206e6f7420746f6b656e206f776e6560008201527f72206f7220617070726f76656400000000000000000000000000000000000000602082015250565b600061223a602d83611b7a565b9150612245826121de565b604082019050919050565b600060208201905081810360008301526122698161222d565b9050919050565b7f4552433732313a20696e76616c696420746f6b656e2049440000000000000000600082015250565b60006122a6601883611b7a565b91506122b182612270565b602082019050919050565b600060208201905081810360008301526122d581612299565b9050919050565b7f4552433732313a2061646472657373207a65726f206973206e6f74206120766160008201527f6c6964206f776e65720000000000000000000000000000000000000000000000602082015250565b6000612338602983611b7a565b9150612343826122dc565b604082019050919050565b600060208201905081810360008301526123678161232b565b9050919050565b600081905092915050565b600061238482611b6f565b61238e818561236e565b935061239e818560208601611b8b565b80840191505092915050565b60006123b68285612379565b91506123c28284612379565b91508190509392505050565b7f4f776e61626c653a206e6577206f776e657220697320746865207a65726f206160008201527f6464726573730000000000000000000000000000000000000000000000000000602082015250565b600061242a602683611b7a565b9150612435826123ce565b604082019050919050565b600060208201905081810360008301526124598161241d565b9050919050565b7f4552433732313a207472616e736665722066726f6d20696e636f72726563742060008201527f6f776e6572000000000000000000000000000000000000000000000000000000602082015250565b60006124bc602583611b7a565b91506124c782612460565b604082019050919050565b600060208201905081810360008301526124eb816124af565b9050919050565b7f4552433732313a207472616e7366657220746f20746865207a65726f2061646460008201527f7265737300000000000000000000000000000000000000000000000000000000602082015250565b600061254e602483611b7a565b9150612559826124f2565b604082019050919050565b6000602082019050818103600083015261257d81612541565b9050919050565b7f4f776e61626c653a2063616c6c6572206973206e6f7420746865206f776e6572600082015250565b60006125ba602083611b7a565b91506125c582612584565b602082019050919050565b600060208201905081810360008301526125e9816125ad565b9050919050565b7f4552433732313a20617070726f766520746f2063616c6c657200000000000000600082015250565b6000612626601983611b7a565b9150612631826125f0565b602082019050919050565b6000602082019050818103600083015261265581612619565b9050919050565b7f4552433732313a207472616e7366657220746f206e6f6e20455243373231526560008201527f63656976657220696d706c656d656e7465720000000000000000000000000000602082015250565b60006126b8603283611b7a565b91506126c38261265c565b604082019050919050565b600060208201905081810360008301526126e7816126ab565b9050919050565b7f4e487b7100000000000000000000000000000000000000000000000000000000600052601260045260246000fd5b600081519050919050565b600082825260208201905092915050565b60006127448261271d565b61274e8185612728565b935061275e818560208601611b8b565b61276781611bb5565b840191505092915050565b60006080820190506127876000830187611cb6565b6127946020830186611cb6565b6127a16040830185611dcc565b81810360608301526127b38184612739565b905095945050505050565b6000815190506127cd81611ae0565b92915050565b6000602082840312156127e9576127e8611aaa565b5b60006127f7848285016127be565b91505092915050565b7f4552433732313a206d696e7420746f20746865207a65726f2061646472657373600082015250565b6000612836602083611b7a565b915061284182612800565b602082019050919050565b6000602082019050818103600083015261286581612829565b9050919050565b7f4552433732313a20746f6b656e20616c7265616479206d696e74656400000000600082015250565b60006128a2601c83611b7a565b91506128ad8261286c565b602082019050919050565b600060208201905081810360008301526128d181612895565b905091905056fea2646970667358221220c89ea6017b9a68be681a619f9a51b6a02a3187f58c6ec8a04c07c852ce3d3d1e64736f6c63430008150033",
  "immutableReferences": {},
  "source": "// SPDX-License-Identifier: MIT\npragma solidity >=0.4.22 <0.9.0; \n\n\nimport \"@openzeppelin/contracts/access/Ownable.sol\"; // to handle the ownership of the contract\nimport \"@openzeppelin/contracts/utils/Counters.sol\"; // to auto-increment the tokenID\nimport \"@openzeppelin/contracts/token/ERC721/ERC721.sol\";\n\n/**\nContract for the Boss of the Gym, only one Owner can mint these NFTs.\n*/\ncontract BossNFT is ERC721, Ownable {\n\n    using Counters for Counters.Counter;\n    Counters.Counter private _tokenIdCounter;\n    \n    constructor() ERC721(\"BossNFT\", \"BSS\") {}\n\n    /// The tokenId is auto-incremented\n    function safeMint(address to) public onlyOwner {\n        uint256 tokenId = _tokenIdCounter.current();\n        _tokenIdCounter.increment();\n        _safeMint(to, tokenId);\n    }\n\n    // Instead of totalSupply we just ask which is the current tokenIdCounter\n    function lastTokenId() external view returns (uint256) {\n        return _tokenIdCounter.current();\n    }\n\n}\n",
  "sourcePath": "/Users/andrep/dev/git/blockchain-exam-PoliMi/flutter/smart-contracts/contracts/BossNFT.sol",
  "compiler": {
    "name": "solc",
    "version": "0.8.21+commit.d9974bed.Emscripten.clang"
  },
  "schemaVersion": "3.4.16",
  "updatedAt": "2023-10-04T14:28:09.609Z",
  "networkType": "ethereum",
  "devdoc": {
    "events": {
      "Approval(address,address,uint256)": {
        "details": "Emitted when `owner` enables `approved` to manage the `tokenId` token."
      },
      "ApprovalForAll(address,address,bool)": {
        "details": "Emitted when `owner` enables or disables (`approved`) `operator` to manage all of its assets."
      },
      "Transfer(address,address,uint256)": {
        "details": "Emitted when `tokenId` token is transferred from `from` to `to`."
      }
    },
    "kind": "dev",
    "methods": {
      "approve(address,uint256)": {
        "details": "See {IERC721-approve}."
      },
      "balanceOf(address)": {
        "details": "See {IERC721-balanceOf}."
      },
      "getApproved(uint256)": {
        "details": "See {IERC721-getApproved}."
      },
      "isApprovedForAll(address,address)": {
        "details": "See {IERC721-isApprovedForAll}."
      },
      "name()": {
        "details": "See {IERC721Metadata-name}."
      },
      "owner()": {
        "details": "Returns the address of the current owner."
      },
      "ownerOf(uint256)": {
        "details": "See {IERC721-ownerOf}."
      },
      "renounceOwnership()": {
        "details": "Leaves the contract without owner. It will not be possible to call `onlyOwner` functions. Can only be called by the current owner. NOTE: Renouncing ownership will leave the contract without an owner, thereby disabling any functionality that is only available to the owner."
      },
      "safeTransferFrom(address,address,uint256)": {
        "details": "See {IERC721-safeTransferFrom}."
      },
      "safeTransferFrom(address,address,uint256,bytes)": {
        "details": "See {IERC721-safeTransferFrom}."
      },
      "setApprovalForAll(address,bool)": {
        "details": "See {IERC721-setApprovalForAll}."
      },
      "supportsInterface(bytes4)": {
        "details": "See {IERC165-supportsInterface}."
      },
      "symbol()": {
        "details": "See {IERC721Metadata-symbol}."
      },
      "tokenURI(uint256)": {
        "details": "See {IERC721Metadata-tokenURI}."
      },
      "transferFrom(address,address,uint256)": {
        "details": "See {IERC721-transferFrom}."
      },
      "transferOwnership(address)": {
        "details": "Transfers ownership of the contract to a new account (`newOwner`). Can only be called by the current owner."
      }
    },
    "version": 1
  },
  "userdoc": {
    "kind": "user",
    "methods": {
      "safeMint(address)": {
        "notice": "The tokenId is auto-incremented"
      }
    },
    "notice": "Contract for the Boss of the Gym, only one Owner can mint these NFTs.",
    "version": 1
  }
}