{
  "contractName": "CustomerNFT",
  "abi": [
    {
      "inputs": [
        {
          "internalType": "address",
          "name": "_nftAddress",
          "type": "address"
        }
      ],
      "stateMutability": "nonpayable",
      "type": "constructor"
    },
    {
      "anonymous": false,
      "inputs": [
        {
          "indexed": true,
          "internalType": "address",
          "name": "owner",
          "type": "address"
        },
        {
          "indexed": true,
          "internalType": "address",
          "name": "approved",
          "type": "address"
        },
        {
          "indexed": true,
          "internalType": "uint256",
          "name": "tokenId",
          "type": "uint256"
        }
      ],
      "name": "Approval",
      "type": "event"
    },
    {
      "anonymous": false,
      "inputs": [
        {
          "indexed": true,
          "internalType": "address",
          "name": "owner",
          "type": "address"
        },
        {
          "indexed": true,
          "internalType": "address",
          "name": "operator",
          "type": "address"
        },
        {
          "indexed": false,
          "internalType": "bool",
          "name": "approved",
          "type": "bool"
        }
      ],
      "name": "ApprovalForAll",
      "type": "event"
    },
    {
      "anonymous": false,
      "inputs": [
        {
          "indexed": true,
          "internalType": "address",
          "name": "previousOwner",
          "type": "address"
        },
        {
          "indexed": true,
          "internalType": "address",
          "name": "newOwner",
          "type": "address"
        }
      ],
      "name": "OwnershipTransferred",
      "type": "event"
    },
    {
      "anonymous": false,
      "inputs": [
        {
          "indexed": true,
          "internalType": "address",
          "name": "from",
          "type": "address"
        },
        {
          "indexed": true,
          "internalType": "address",
          "name": "to",
          "type": "address"
        },
        {
          "indexed": true,
          "internalType": "uint256",
          "name": "tokenId",
          "type": "uint256"
        }
      ],
      "name": "Transfer",
      "type": "event"
    },
    {
      "inputs": [],
      "name": "adminNFT",
      "outputs": [
        {
          "internalType": "contract IERC721",
          "name": "",
          "type": "address"
        }
      ],
      "stateMutability": "view",
      "type": "function",
      "constant": true
    },
    {
      "inputs": [
        {
          "internalType": "address",
          "name": "to",
          "type": "address"
        },
        {
          "internalType": "uint256",
          "name": "tokenId",
          "type": "uint256"
        }
      ],
      "name": "approve",
      "outputs": [],
      "stateMutability": "nonpayable",
      "type": "function"
    },
    {
      "inputs": [
        {
          "internalType": "address",
          "name": "owner",
          "type": "address"
        }
      ],
      "name": "balanceOf",
      "outputs": [
        {
          "internalType": "uint256",
          "name": "",
          "type": "uint256"
        }
      ],
      "stateMutability": "view",
      "type": "function",
      "constant": true
    },
    {
      "inputs": [
        {
          "internalType": "uint256",
          "name": "tokenId",
          "type": "uint256"
        }
      ],
      "name": "getApproved",
      "outputs": [
        {
          "internalType": "address",
          "name": "",
          "type": "address"
        }
      ],
      "stateMutability": "view",
      "type": "function",
      "constant": true
    },
    {
      "inputs": [
        {
          "internalType": "address",
          "name": "owner",
          "type": "address"
        },
        {
          "internalType": "address",
          "name": "operator",
          "type": "address"
        }
      ],
      "name": "isApprovedForAll",
      "outputs": [
        {
          "internalType": "bool",
          "name": "",
          "type": "bool"
        }
      ],
      "stateMutability": "view",
      "type": "function",
      "constant": true
    },
    {
      "inputs": [],
      "name": "name",
      "outputs": [
        {
          "internalType": "string",
          "name": "",
          "type": "string"
        }
      ],
      "stateMutability": "view",
      "type": "function",
      "constant": true
    },
    {
      "inputs": [],
      "name": "owner",
      "outputs": [
        {
          "internalType": "address",
          "name": "",
          "type": "address"
        }
      ],
      "stateMutability": "view",
      "type": "function",
      "constant": true
    },
    {
      "inputs": [
        {
          "internalType": "uint256",
          "name": "tokenId",
          "type": "uint256"
        }
      ],
      "name": "ownerOf",
      "outputs": [
        {
          "internalType": "address",
          "name": "",
          "type": "address"
        }
      ],
      "stateMutability": "view",
      "type": "function",
      "constant": true
    },
    {
      "inputs": [],
      "name": "renounceOwnership",
      "outputs": [],
      "stateMutability": "nonpayable",
      "type": "function"
    },
    {
      "inputs": [
        {
          "internalType": "address",
          "name": "from",
          "type": "address"
        },
        {
          "internalType": "address",
          "name": "to",
          "type": "address"
        },
        {
          "internalType": "uint256",
          "name": "tokenId",
          "type": "uint256"
        }
      ],
      "name": "safeTransferFrom",
      "outputs": [],
      "stateMutability": "nonpayable",
      "type": "function"
    },
    {
      "inputs": [
        {
          "internalType": "address",
          "name": "from",
          "type": "address"
        },
        {
          "internalType": "address",
          "name": "to",
          "type": "address"
        },
        {
          "internalType": "uint256",
          "name": "tokenId",
          "type": "uint256"
        },
        {
          "internalType": "bytes",
          "name": "data",
          "type": "bytes"
        }
      ],
      "name": "safeTransferFrom",
      "outputs": [],
      "stateMutability": "nonpayable",
      "type": "function"
    },
    {
      "inputs": [
        {
          "internalType": "address",
          "name": "operator",
          "type": "address"
        },
        {
          "internalType": "bool",
          "name": "approved",
          "type": "bool"
        }
      ],
      "name": "setApprovalForAll",
      "outputs": [],
      "stateMutability": "nonpayable",
      "type": "function"
    },
    {
      "inputs": [
        {
          "internalType": "bytes4",
          "name": "interfaceId",
          "type": "bytes4"
        }
      ],
      "name": "supportsInterface",
      "outputs": [
        {
          "internalType": "bool",
          "name": "",
          "type": "bool"
        }
      ],
      "stateMutability": "view",
      "type": "function",
      "constant": true
    },
    {
      "inputs": [],
      "name": "symbol",
      "outputs": [
        {
          "internalType": "string",
          "name": "",
          "type": "string"
        }
      ],
      "stateMutability": "view",
      "type": "function",
      "constant": true
    },
    {
      "inputs": [
        {
          "internalType": "uint256",
          "name": "tokenId",
          "type": "uint256"
        }
      ],
      "name": "tokenURI",
      "outputs": [
        {
          "internalType": "string",
          "name": "",
          "type": "string"
        }
      ],
      "stateMutability": "view",
      "type": "function",
      "constant": true
    },
    {
      "inputs": [
        {
          "internalType": "address",
          "name": "from",
          "type": "address"
        },
        {
          "internalType": "address",
          "name": "to",
          "type": "address"
        },
        {
          "internalType": "uint256",
          "name": "tokenId",
          "type": "uint256"
        }
      ],
      "name": "transferFrom",
      "outputs": [],
      "stateMutability": "nonpayable",
      "type": "function"
    },
    {
      "inputs": [
        {
          "internalType": "address",
          "name": "newOwner",
          "type": "address"
        }
      ],
      "name": "transferOwnership",
      "outputs": [],
      "stateMutability": "nonpayable",
      "type": "function"
    },
    {
      "inputs": [
        {
          "internalType": "address",
          "name": "to",
          "type": "address"
        }
      ],
      "name": "safeMint",
      "outputs": [],
      "stateMutability": "nonpayable",
      "type": "function"
    }
  ],
  "bytecode": "0x60806040523480156200001157600080fd5b50604051620031873803806200318783398181016040528101906200003791906200027b565b6040518060400160405280600b81526020017f437573746f6d65724e46540000000000000000000000000000000000000000008152506040518060400160405280600381526020017f43535400000000000000000000000000000000000000000000000000000000008152508160009081620000b491906200052d565b508060019081620000c691906200052d565b505050620000fb620000e662000143640100000000026401000000009004565b6200014b640100000000026401000000009004565b80600760006101000a81548173ffffffffffffffffffffffffffffffffffffffff021916908373ffffffffffffffffffffffffffffffffffffffff1602179055505062000614565b600033905090565b6000600660009054906101000a900473ffffffffffffffffffffffffffffffffffffffff16905081600660006101000a81548173ffffffffffffffffffffffffffffffffffffffff021916908373ffffffffffffffffffffffffffffffffffffffff1602179055508173ffffffffffffffffffffffffffffffffffffffff168173ffffffffffffffffffffffffffffffffffffffff167f8be0079c531659141344cd1fd0a4f28419497f9722a3daafe3b4186f6b6457e060405160405180910390a35050565b600080fd5b600073ffffffffffffffffffffffffffffffffffffffff82169050919050565b6000620002438262000216565b9050919050565b620002558162000236565b81146200026157600080fd5b50565b60008151905062000275816200024a565b92915050565b60006020828403121562000294576200029362000211565b5b6000620002a48482850162000264565b91505092915050565b600081519050919050565b7f4e487b7100000000000000000000000000000000000000000000000000000000600052604160045260246000fd5b7f4e487b7100000000000000000000000000000000000000000000000000000000600052602260045260246000fd5b600060028204905060018216806200032f57607f821691505b602082108103620003455762000344620002e7565b5b50919050565b60008190508160005260206000209050919050565b60006020601f8301049050919050565b60008160020a8302905092915050565b600060088302620003b27fffffffffffffffffffffffffffffffffffffffffffffffffffffffffffffffff8262000370565b620003be868362000370565b95508019841693508086168417925050509392505050565b6000819050919050565b6000819050919050565b60006200040b62000405620003ff84620003d6565b620003e0565b620003d6565b9050919050565b6000819050919050565b6200042783620003ea565b6200043f620004368262000412565b84845462000380565b825550505050565b600090565b6200045662000447565b620004638184846200041c565b505050565b5b818110156200048b576200047f6000826200044c565b60018101905062000469565b5050565b601f821115620004da57620004a4816200034b565b620004af8462000360565b81016020851015620004bf578190505b620004d7620004ce8562000360565b83018262000468565b50505b505050565b60008160020a8304905092915050565b60006200050260001984600802620004df565b1980831691505092915050565b60006200051d8383620004ef565b9150826002028217905092915050565b6200053882620002ad565b67ffffffffffffffff811115620005545762000553620002b8565b5b62000560825462000316565b6200056d8282856200048f565b600060209050601f831160018114620005a5576000841562000590578287015190505b6200059c85826200050f565b8655506200060c565b601f198416620005b5866200034b565b60005b82811015620005df57848901518255600182019150602085019450602081019050620005b8565b86831015620005ff5784890151620005fb601f891682620004ef565b8355505b6001600288020188555050505b505050505050565b612b6380620006246000396000f3fe608060405234801561001057600080fd5b5060043610610133576000357c010000000000000000000000000000000000000000000000000000000090048063715018a6116100bf578063b88d4fde1161008e578063b88d4fde146102e8578063bfb6f17a14610304578063c87b56dd14610322578063e985e9c514610352578063f2fde38b1461038257610133565b8063715018a6146102865780638da5cb5b1461029057806395d89b41146102ae578063a22cb465146102cc57610133565b806323b872dd1161010657806323b872dd146101d257806340d097c3146101ee57806342842e0e1461020a5780636352211e1461022657806370a082311461025657610133565b806301ffc9a71461013857806306fdde0314610168578063081812fc14610186578063095ea7b3146101b6575b600080fd5b610152600480360381019061014d9190611c13565b61039e565b60405161015f9190611c5b565b60405180910390f35b610170610480565b60405161017d9190611d06565b60405180910390f35b6101a0600480360381019061019b9190611d5e565b610512565b6040516101ad9190611dcc565b60405180910390f35b6101d060048036038101906101cb9190611e13565b610558565b005b6101ec60048036038101906101e79190611e53565b61066f565b005b61020860048036038101906102039190611ea6565b6106cf565b005b610224600480360381019061021f9190611e53565b6107ef565b005b610240600480360381019061023b9190611d5e565b61080f565b60405161024d9190611dcc565b60405180910390f35b610270600480360381019061026b9190611ea6565b610895565b60405161027d9190611ee2565b60405180910390f35b61028e61094c565b005b610298610960565b6040516102a59190611dcc565b60405180910390f35b6102b661098a565b6040516102c39190611d06565b60405180910390f35b6102e660048036038101906102e19190611f29565b610a1c565b005b61030260048036038101906102fd919061209e565b610a32565b005b61030c610a94565b6040516103199190612180565b60405180910390f35b61033c60048036038101906103379190611d5e565b610aba565b6040516103499190611d06565b60405180910390f35b61036c6004803603810190610367919061219b565b610b22565b6040516103799190611c5b565b60405180910390f35b61039c60048036038101906103979190611ea6565b610bb6565b005b60007f80ac58cd000000000000000000000000000000000000000000000000000000007bffffffffffffffffffffffffffffffffffffffffffffffffffffffff1916827bffffffffffffffffffffffffffffffffffffffffffffffffffffffff1916148061046957507f5b5e139f000000000000000000000000000000000000000000000000000000007bffffffffffffffffffffffffffffffffffffffffffffffffffffffff1916827bffffffffffffffffffffffffffffffffffffffffffffffffffffffff1916145b80610479575061047882610c39565b5b9050919050565b60606000805461048f9061220a565b80601f01602080910402602001604051908101604052809291908181526020018280546104bb9061220a565b80156105085780601f106104dd57610100808354040283529160200191610508565b820191906000526020600020905b8154815290600101906020018083116104eb57829003601f168201915b5050505050905090565b600061051d82610ca3565b6004600083815260200190815260200160002060009054906101000a900473ffffffffffffffffffffffffffffffffffffffff169050919050565b60006105638261080f565b90508073ffffffffffffffffffffffffffffffffffffffff168373ffffffffffffffffffffffffffffffffffffffff16036105d3576040517f08c379a00000000000000000000000000000000000000000000000000000000081526004016105ca906122ad565b60405180910390fd5b8073ffffffffffffffffffffffffffffffffffffffff166105f2610cee565b73ffffffffffffffffffffffffffffffffffffffff16148061062157506106208161061b610cee565b610b22565b5b610660576040517f08c379a00000000000000000000000000000000000000000000000000000000081526004016106579061233f565b60405180910390fd5b61066a8383610cf6565b505050565b61068061067a610cee565b82610daf565b6106bf576040517f08c379a00000000000000000000000000000000000000000000000000000000081526004016106b6906123d1565b60405180910390fd5b6106ca838383610e44565b505050565b6000600760009054906101000a900473ffffffffffffffffffffffffffffffffffffffff1673ffffffffffffffffffffffffffffffffffffffff166370a08231336040518263ffffffff167c01000000000000000000000000000000000000000000000000000000000281526004016107489190611dcc565b602060405180830381865afa158015610765573d6000803e3d6000fd5b505050506040513d601f19601f820116820180604052508101906107899190612406565b116107c9576040517f08c379a00000000000000000000000000000000000000000000000000000000081526004016107c0906124a5565b60405180910390fd5b60006107d5600861113d565b90506107e1600861114b565b6107eb8282611161565b5050565b61080a83838360405180602001604052806000815250610a32565b505050565b60008061081b8361117f565b9050600073ffffffffffffffffffffffffffffffffffffffff168173ffffffffffffffffffffffffffffffffffffffff160361088c576040517f08c379a000000000000000000000000000000000000000000000000000000000815260040161088390612511565b60405180910390fd5b80915050919050565b60008073ffffffffffffffffffffffffffffffffffffffff168273ffffffffffffffffffffffffffffffffffffffff1603610905576040517f08c379a00000000000000000000000000000000000000000000000000000000081526004016108fc906125a3565b60405180910390fd5b600360008373ffffffffffffffffffffffffffffffffffffffff1673ffffffffffffffffffffffffffffffffffffffff168152602001908152602001600020549050919050565b6109546111bc565b61095e600061123a565b565b6000600660009054906101000a900473ffffffffffffffffffffffffffffffffffffffff16905090565b6060600180546109999061220a565b80601f01602080910402602001604051908101604052809291908181526020018280546109c59061220a565b8015610a125780601f106109e757610100808354040283529160200191610a12565b820191906000526020600020905b8154815290600101906020018083116109f557829003601f168201915b5050505050905090565b610a2e610a27610cee565b8383611300565b5050565b610a43610a3d610cee565b83610daf565b610a82576040517f08c379a0000000000000000000000000000000000000000000000000000000008152600401610a79906123d1565b60405180910390fd5b610a8e8484848461146c565b50505050565b600760009054906101000a900473ffffffffffffffffffffffffffffffffffffffff1681565b6060610ac582610ca3565b6000610acf6114c8565b90506000815111610aef5760405180602001604052806000815250610b1a565b80610af9846114df565b604051602001610b0a9291906125ff565b6040516020818303038152906040525b915050919050565b6000600560008473ffffffffffffffffffffffffffffffffffffffff1673ffffffffffffffffffffffffffffffffffffffff16815260200190815260200160002060008373ffffffffffffffffffffffffffffffffffffffff1673ffffffffffffffffffffffffffffffffffffffff16815260200190815260200160002060009054906101000a900460ff16905092915050565b610bbe6111bc565b600073ffffffffffffffffffffffffffffffffffffffff168173ffffffffffffffffffffffffffffffffffffffff1603610c2d576040517f08c379a0000000000000000000000000000000000000000000000000000000008152600401610c2490612695565b60405180910390fd5b610c368161123a565b50565b60007f01ffc9a7000000000000000000000000000000000000000000000000000000007bffffffffffffffffffffffffffffffffffffffffffffffffffffffff1916827bffffffffffffffffffffffffffffffffffffffffffffffffffffffff1916149050919050565b610cac816115ad565b610ceb576040517f08c379a0000000000000000000000000000000000000000000000000000000008152600401610ce290612511565b60405180910390fd5b50565b600033905090565b816004600083815260200190815260200160002060006101000a81548173ffffffffffffffffffffffffffffffffffffffff021916908373ffffffffffffffffffffffffffffffffffffffff160217905550808273ffffffffffffffffffffffffffffffffffffffff16610d698361080f565b73ffffffffffffffffffffffffffffffffffffffff167f8c5be1e5ebec7d5bd14f71427d1e84f3dd0314c0f7b2291e5b200ac8c7c3b92560405160405180910390a45050565b600080610dbb8361080f565b90508073ffffffffffffffffffffffffffffffffffffffff168473ffffffffffffffffffffffffffffffffffffffff161480610dfd5750610dfc8185610b22565b5b80610e3b57508373ffffffffffffffffffffffffffffffffffffffff16610e2384610512565b73ffffffffffffffffffffffffffffffffffffffff16145b91505092915050565b8273ffffffffffffffffffffffffffffffffffffffff16610e648261080f565b73ffffffffffffffffffffffffffffffffffffffff1614610eba576040517f08c379a0000000000000000000000000000000000000000000000000000000008152600401610eb190612727565b60405180910390fd5b600073ffffffffffffffffffffffffffffffffffffffff168273ffffffffffffffffffffffffffffffffffffffff1603610f29576040517f08c379a0000000000000000000000000000000000000000000000000000000008152600401610f20906127b9565b60405180910390fd5b610f3683838360016115ee565b8273ffffffffffffffffffffffffffffffffffffffff16610f568261080f565b73ffffffffffffffffffffffffffffffffffffffff1614610fac576040517f08c379a0000000000000000000000000000000000000000000000000000000008152600401610fa390612727565b60405180910390fd5b6004600082815260200190815260200160002060006101000a81549073ffffffffffffffffffffffffffffffffffffffff02191690556001600360008573ffffffffffffffffffffffffffffffffffffffff1673ffffffffffffffffffffffffffffffffffffffff168152602001908152602001600020600082825403925050819055506001600360008473ffffffffffffffffffffffffffffffffffffffff1673ffffffffffffffffffffffffffffffffffffffff16815260200190815260200160002060008282540192505081905550816002600083815260200190815260200160002060006101000a81548173ffffffffffffffffffffffffffffffffffffffff021916908373ffffffffffffffffffffffffffffffffffffffff160217905550808273ffffffffffffffffffffffffffffffffffffffff168473ffffffffffffffffffffffffffffffffffffffff167fddf252ad1be2c89b69c2b068fc378daa952ba7f163c4a11628f55a4df523b3ef60405160405180910390a461113883838360016115f4565b505050565b600081600001549050919050565b6001816000016000828254019250508190555050565b61117b8282604051806020016040528060008152506115fa565b5050565b60006002600083815260200190815260200160002060009054906101000a900473ffffffffffffffffffffffffffffffffffffffff169050919050565b6111c4610cee565b73ffffffffffffffffffffffffffffffffffffffff166111e2610960565b73ffffffffffffffffffffffffffffffffffffffff1614611238576040517f08c379a000000000000000000000000000000000000000000000000000000000815260040161122f90612825565b60405180910390fd5b565b6000600660009054906101000a900473ffffffffffffffffffffffffffffffffffffffff16905081600660006101000a81548173ffffffffffffffffffffffffffffffffffffffff021916908373ffffffffffffffffffffffffffffffffffffffff1602179055508173ffffffffffffffffffffffffffffffffffffffff168173ffffffffffffffffffffffffffffffffffffffff167f8be0079c531659141344cd1fd0a4f28419497f9722a3daafe3b4186f6b6457e060405160405180910390a35050565b8173ffffffffffffffffffffffffffffffffffffffff168373ffffffffffffffffffffffffffffffffffffffff160361136e576040517f08c379a000000000000000000000000000000000000000000000000000000000815260040161136590612891565b60405180910390fd5b80600560008573ffffffffffffffffffffffffffffffffffffffff1673ffffffffffffffffffffffffffffffffffffffff16815260200190815260200160002060008473ffffffffffffffffffffffffffffffffffffffff1673ffffffffffffffffffffffffffffffffffffffff16815260200190815260200160002060006101000a81548160ff0219169083151502179055508173ffffffffffffffffffffffffffffffffffffffff168373ffffffffffffffffffffffffffffffffffffffff167f17307eab39ab6107e8899845ad3d59bd9653f200f220920489ca2b5937696c318360405161145f9190611c5b565b60405180910390a3505050565b611477848484610e44565b61148384848484611655565b6114c2576040517f08c379a00000000000000000000000000000000000000000000000000000000081526004016114b990612923565b60405180910390fd5b50505050565b606060405180602001604052806000815250905090565b6060600060016114ee84611814565b01905060008167ffffffffffffffff81111561150d5761150c611f73565b5b6040519080825280601f01601f19166020018201604052801561153f5781602001600182028036833780820191505090505b509050600082602001820190505b6001156115a2578080600190039150507f3031323334353637383961626364656600000000000000000000000000000000600a86061a8153600a858161159657611595612943565b5b0494506000850361154d575b819350505050919050565b60008073ffffffffffffffffffffffffffffffffffffffff166115cf8361117f565b73ffffffffffffffffffffffffffffffffffffffff1614159050919050565b50505050565b50505050565b6116048383611967565b6116116000848484611655565b611650576040517f08c379a000000000000000000000000000000000000000000000000000000000815260040161164790612923565b60405180910390fd5b505050565b60006116768473ffffffffffffffffffffffffffffffffffffffff16611b84565b15611807578373ffffffffffffffffffffffffffffffffffffffff1663150b7a0261169f610cee565b8786866040518563ffffffff167c01000000000000000000000000000000000000000000000000000000000281526004016116dd94939291906129c7565b6020604051808303816000875af192505050801561171957506040513d601f19601f820116820180604052508101906117169190612a28565b60015b61179b573d8060008114611749576040519150601f19603f3d011682016040523d82523d6000602084013e61174e565b606091505b506000815103611793576040517f08c379a000000000000000000000000000000000000000000000000000000000815260040161178a90612923565b60405180910390fd5b805181602001fd5b63150b7a027c0100000000000000000000000000000000000000000000000000000000027bffffffffffffffffffffffffffffffffffffffffffffffffffffffff1916817bffffffffffffffffffffffffffffffffffffffffffffffffffffffff19161491505061180c565b600190505b949350505050565b600080600090507a184f03e93ff9f4daa797ed6e38ed64bf6a1f0100000000000000008310611872577a184f03e93ff9f4daa797ed6e38ed64bf6a1f010000000000000000838161186857611867612943565b5b0492506040810190505b6d04ee2d6d415b85acef810000000083106118af576d04ee2d6d415b85acef810000000083816118a5576118a4612943565b5b0492506020810190505b662386f26fc1000083106118de57662386f26fc1000083816118d4576118d3612943565b5b0492506010810190505b6305f5e1008310611907576305f5e10083816118fd576118fc612943565b5b0492506008810190505b612710831061192c57612710838161192257611921612943565b5b0492506004810190505b6064831061194f576064838161194557611944612943565b5b0492506002810190505b600a831061195e576001810190505b80915050919050565b600073ffffffffffffffffffffffffffffffffffffffff168273ffffffffffffffffffffffffffffffffffffffff16036119d6576040517f08c379a00000000000000000000000000000000000000000000000000000000081526004016119cd90612aa1565b60405180910390fd5b6119df816115ad565b15611a1f576040517f08c379a0000000000000000000000000000000000000000000000000000000008152600401611a1690612b0d565b60405180910390fd5b611a2d6000838360016115ee565b611a36816115ad565b15611a76576040517f08c379a0000000000000000000000000000000000000000000000000000000008152600401611a6d90612b0d565b60405180910390fd5b6001600360008473ffffffffffffffffffffffffffffffffffffffff1673ffffffffffffffffffffffffffffffffffffffff16815260200190815260200160002060008282540192505081905550816002600083815260200190815260200160002060006101000a81548173ffffffffffffffffffffffffffffffffffffffff021916908373ffffffffffffffffffffffffffffffffffffffff160217905550808273ffffffffffffffffffffffffffffffffffffffff16600073ffffffffffffffffffffffffffffffffffffffff167fddf252ad1be2c89b69c2b068fc378daa952ba7f163c4a11628f55a4df523b3ef60405160405180910390a4611b806000838360016115f4565b5050565b6000808273ffffffffffffffffffffffffffffffffffffffff163b119050919050565b6000604051905090565b600080fd5b600080fd5b60007fffffffff0000000000000000000000000000000000000000000000000000000082169050919050565b611bf081611bbb565b8114611bfb57600080fd5b50565b600081359050611c0d81611be7565b92915050565b600060208284031215611c2957611c28611bb1565b5b6000611c3784828501611bfe565b91505092915050565b60008115159050919050565b611c5581611c40565b82525050565b6000602082019050611c706000830184611c4c565b92915050565b600081519050919050565b600082825260208201905092915050565b60005b83811015611cb0578082015181840152602081019050611c95565b60008484015250505050565b6000601f19601f8301169050919050565b6000611cd882611c76565b611ce28185611c81565b9350611cf2818560208601611c92565b611cfb81611cbc565b840191505092915050565b60006020820190508181036000830152611d208184611ccd565b905092915050565b6000819050919050565b611d3b81611d28565b8114611d4657600080fd5b50565b600081359050611d5881611d32565b92915050565b600060208284031215611d7457611d73611bb1565b5b6000611d8284828501611d49565b91505092915050565b600073ffffffffffffffffffffffffffffffffffffffff82169050919050565b6000611db682611d8b565b9050919050565b611dc681611dab565b82525050565b6000602082019050611de16000830184611dbd565b92915050565b611df081611dab565b8114611dfb57600080fd5b50565b600081359050611e0d81611de7565b92915050565b60008060408385031215611e2a57611e29611bb1565b5b6000611e3885828601611dfe565b9250506020611e4985828601611d49565b9150509250929050565b600080600060608486031215611e6c57611e6b611bb1565b5b6000611e7a86828701611dfe565b9350506020611e8b86828701611dfe565b9250506040611e9c86828701611d49565b9150509250925092565b600060208284031215611ebc57611ebb611bb1565b5b6000611eca84828501611dfe565b91505092915050565b611edc81611d28565b82525050565b6000602082019050611ef76000830184611ed3565b92915050565b611f0681611c40565b8114611f1157600080fd5b50565b600081359050611f2381611efd565b92915050565b60008060408385031215611f4057611f3f611bb1565b5b6000611f4e85828601611dfe565b9250506020611f5f85828601611f14565b9150509250929050565b600080fd5b600080fd5b7f4e487b7100000000000000000000000000000000000000000000000000000000600052604160045260246000fd5b611fab82611cbc565b810181811067ffffffffffffffff82111715611fca57611fc9611f73565b5b80604052505050565b6000611fdd611ba7565b9050611fe98282611fa2565b919050565b600067ffffffffffffffff82111561200957612008611f73565b5b61201282611cbc565b9050602081019050919050565b82818337600083830152505050565b600061204161203c84611fee565b611fd3565b90508281526020810184848401111561205d5761205c611f6e565b5b61206884828561201f565b509392505050565b600082601f83011261208557612084611f69565b5b813561209584826020860161202e565b91505092915050565b600080600080608085870312156120b8576120b7611bb1565b5b60006120c687828801611dfe565b94505060206120d787828801611dfe565b93505060406120e887828801611d49565b925050606085013567ffffffffffffffff81111561210957612108611bb6565b5b61211587828801612070565b91505092959194509250565b6000819050919050565b600061214661214161213c84611d8b565b612121565b611d8b565b9050919050565b60006121588261212b565b9050919050565b600061216a8261214d565b9050919050565b61217a8161215f565b82525050565b60006020820190506121956000830184612171565b92915050565b600080604083850312156121b2576121b1611bb1565b5b60006121c085828601611dfe565b92505060206121d185828601611dfe565b9150509250929050565b7f4e487b7100000000000000000000000000000000000000000000000000000000600052602260045260246000fd5b6000600282049050600182168061222257607f821691505b602082108103612235576122346121db565b5b50919050565b7f4552433732313a20617070726f76616c20746f2063757272656e74206f776e6560008201527f7200000000000000000000000000000000000000000000000000000000000000602082015250565b6000612297602183611c81565b91506122a28261223b565b604082019050919050565b600060208201905081810360008301526122c68161228a565b9050919050565b7f4552433732313a20617070726f76652063616c6c6572206973206e6f7420746f60008201527f6b656e206f776e6572206f7220617070726f76656420666f7220616c6c000000602082015250565b6000612329603d83611c81565b9150612334826122cd565b604082019050919050565b600060208201905081810360008301526123588161231c565b9050919050565b7f4552433732313a2063616c6c6572206973206e6f7420746f6b656e206f776e6560008201527f72206f7220617070726f76656400000000000000000000000000000000000000602082015250565b60006123bb602d83611c81565b91506123c68261235f565b604082019050919050565b600060208201905081810360008301526123ea816123ae565b9050919050565b60008151905061240081611d32565b92915050565b60006020828403121561241c5761241b611bb1565b5b600061242a848285016123f1565b91505092915050565b7f4f6e6c792041646d696e4e4654206f776e6572732063616e2063616c6c20746860008201527f69732066756e6374696f6e000000000000000000000000000000000000000000602082015250565b600061248f602b83611c81565b915061249a82612433565b604082019050919050565b600060208201905081810360008301526124be81612482565b9050919050565b7f4552433732313a20696e76616c696420746f6b656e2049440000000000000000600082015250565b60006124fb601883611c81565b9150612506826124c5565b602082019050919050565b6000602082019050818103600083015261252a816124ee565b9050919050565b7f4552433732313a2061646472657373207a65726f206973206e6f74206120766160008201527f6c6964206f776e65720000000000000000000000000000000000000000000000602082015250565b600061258d602983611c81565b915061259882612531565b604082019050919050565b600060208201905081810360008301526125bc81612580565b9050919050565b600081905092915050565b60006125d982611c76565b6125e381856125c3565b93506125f3818560208601611c92565b80840191505092915050565b600061260b82856125ce565b915061261782846125ce565b91508190509392505050565b7f4f776e61626c653a206e6577206f776e657220697320746865207a65726f206160008201527f6464726573730000000000000000000000000000000000000000000000000000602082015250565b600061267f602683611c81565b915061268a82612623565b604082019050919050565b600060208201905081810360008301526126ae81612672565b9050919050565b7f4552433732313a207472616e736665722066726f6d20696e636f72726563742060008201527f6f776e6572000000000000000000000000000000000000000000000000000000602082015250565b6000612711602583611c81565b915061271c826126b5565b604082019050919050565b6000602082019050818103600083015261274081612704565b9050919050565b7f4552433732313a207472616e7366657220746f20746865207a65726f2061646460008201527f7265737300000000000000000000000000000000000000000000000000000000602082015250565b60006127a3602483611c81565b91506127ae82612747565b604082019050919050565b600060208201905081810360008301526127d281612796565b9050919050565b7f4f776e61626c653a2063616c6c6572206973206e6f7420746865206f776e6572600082015250565b600061280f602083611c81565b915061281a826127d9565b602082019050919050565b6000602082019050818103600083015261283e81612802565b9050919050565b7f4552433732313a20617070726f766520746f2063616c6c657200000000000000600082015250565b600061287b601983611c81565b915061288682612845565b602082019050919050565b600060208201905081810360008301526128aa8161286e565b9050919050565b7f4552433732313a207472616e7366657220746f206e6f6e20455243373231526560008201527f63656976657220696d706c656d656e7465720000000000000000000000000000602082015250565b600061290d603283611c81565b9150612918826128b1565b604082019050919050565b6000602082019050818103600083015261293c81612900565b9050919050565b7f4e487b7100000000000000000000000000000000000000000000000000000000600052601260045260246000fd5b600081519050919050565b600082825260208201905092915050565b600061299982612972565b6129a3818561297d565b93506129b3818560208601611c92565b6129bc81611cbc565b840191505092915050565b60006080820190506129dc6000830187611dbd565b6129e96020830186611dbd565b6129f66040830185611ed3565b8181036060830152612a08818461298e565b905095945050505050565b600081519050612a2281611be7565b92915050565b600060208284031215612a3e57612a3d611bb1565b5b6000612a4c84828501612a13565b91505092915050565b7f4552433732313a206d696e7420746f20746865207a65726f2061646472657373600082015250565b6000612a8b602083611c81565b9150612a9682612a55565b602082019050919050565b60006020820190508181036000830152612aba81612a7e565b9050919050565b7f4552433732313a20746f6b656e20616c7265616479206d696e74656400000000600082015250565b6000612af7601c83611c81565b9150612b0282612ac1565b602082019050919050565b60006020820190508181036000830152612b2681612aea565b905091905056fea26469706673582212205473cf677bab2cafc968d191a8532bf02b57624e2ae60cef46dae681b9111b4264736f6c63430008150033",
  "immutableReferences": {},
  "source": "// SPDX-License-Identifier: MIT\npragma solidity >=0.4.22 <0.9.0; \n\nimport \"@openzeppelin/contracts/access/Ownable.sol\"; // to handle the ownership of the contract\nimport \"@openzeppelin/contracts/utils/Counters.sol\"; // to auto-increment the tokenID\nimport \"@openzeppelin/contracts/token/ERC721/ERC721.sol\"; // NFT's standard\n\ncontract CustomerNFT is ERC721, Ownable {\n\n    IERC721 public adminNFT; // Reference to your AdminNFT contract\n\n    using Counters for Counters.Counter;\n    Counters.Counter private _tokenIdCounter;\n\n    constructor(address _nftAddress) ERC721(\"CustomerNFT\", \"CST\") {\n        adminNFT = IERC721(_nftAddress);\n    }\n\n    modifier onlyAdminNFTOwner () {\n        // require that the sender has at least 1 BossNFT\n        require(\n            adminNFT.balanceOf(msg.sender) > 0,\n            \"Only AdminNFT owners can call this function\"\n        );\n        _; // placeholder for the statement\n    }\n\n    /// The tokenId is auto-incremented\n    function safeMint(address to) public onlyAdminNFTOwner {\n        uint256 tokenId = _tokenIdCounter.current();\n        _tokenIdCounter.increment();\n        _safeMint(to, tokenId);\n    }\n\n}",
  "sourcePath": "/Users/andrep/dev/git/blockchain-exam-PoliMi/flutter/smart-contracts/contracts/CustomerNFT.sol",
  "compiler": {
    "name": "solc",
    "version": "0.8.21+commit.d9974bed.Emscripten.clang"
  },
  "schemaVersion": "3.4.16",
  "updatedAt": "2023-10-04T14:28:09.634Z",
  "networkType": "ethereum",
  "devdoc": {
    "events": {
      "Approval(address,address,uint256)": {
        "details": "Emitted when `owner` enables `approved` to manage the `tokenId` token."
      },
      "ApprovalForAll(address,address,bool)": {
        "details": "Emitted when `owner` enables or disables (`approved`) `operator` to manage all of its assets."
      },
      "Transfer(address,address,uint256)": {
        "details": "Emitted when `tokenId` token is transferred from `from` to `to`."
      }
    },
    "kind": "dev",
    "methods": {
      "approve(address,uint256)": {
        "details": "See {IERC721-approve}."
      },
      "balanceOf(address)": {
        "details": "See {IERC721-balanceOf}."
      },
      "getApproved(uint256)": {
        "details": "See {IERC721-getApproved}."
      },
      "isApprovedForAll(address,address)": {
        "details": "See {IERC721-isApprovedForAll}."
      },
      "name()": {
        "details": "See {IERC721Metadata-name}."
      },
      "owner()": {
        "details": "Returns the address of the current owner."
      },
      "ownerOf(uint256)": {
        "details": "See {IERC721-ownerOf}."
      },
      "renounceOwnership()": {
        "details": "Leaves the contract without owner. It will not be possible to call `onlyOwner` functions. Can only be called by the current owner. NOTE: Renouncing ownership will leave the contract without an owner, thereby disabling any functionality that is only available to the owner."
      },
      "safeTransferFrom(address,address,uint256)": {
        "details": "See {IERC721-safeTransferFrom}."
      },
      "safeTransferFrom(address,address,uint256,bytes)": {
        "details": "See {IERC721-safeTransferFrom}."
      },
      "setApprovalForAll(address,bool)": {
        "details": "See {IERC721-setApprovalForAll}."
      },
      "supportsInterface(bytes4)": {
        "details": "See {IERC165-supportsInterface}."
      },
      "symbol()": {
        "details": "See {IERC721Metadata-symbol}."
      },
      "tokenURI(uint256)": {
        "details": "See {IERC721Metadata-tokenURI}."
      },
      "transferFrom(address,address,uint256)": {
        "details": "See {IERC721-transferFrom}."
      },
      "transferOwnership(address)": {
        "details": "Transfers ownership of the contract to a new account (`newOwner`). Can only be called by the current owner."
      }
    },
    "version": 1
  },
  "userdoc": {
    "kind": "user",
    "methods": {
      "safeMint(address)": {
        "notice": "The tokenId is auto-incremented"
      }
    },
    "version": 1
  }
}